:100000002CA7002005040000F9030000ED03000008
:10001000F9030000E1030000D50300000000000028
:100020000000000000000000000000009925000012
:10003000F903000000000000332600004326000002
:10004000F9030000F9030000F9030000F9030000C0
:10005000F9030000F9030000C5060000F9030000E1
:10006000F9030000F9030000F9030000F9030000A0
:10007000F9030000F9030000F9030000F903000090
:10008000F9030000F9030000F9030000F903000080
:10009000F9030000F9030000F9030000F903000070
:1000A000F9030000F9030000F9030000F903000060
:1000B000F9030000F9030000000000000000000048
:1000C000F9030000F9030000F9030000F903000040
:1000D000F9030000F9030000F9030000F903000030
:1000E000F903000000000000000000000000000014
:1000F00000000000F903000000000000F903000008
:1001000000000000000000000000000000000000EF
:1001100000000000000000000000000000000000DF
:1001200000000000000000000000000000000000CF
:1001300000000000000000000000000000000000BF
:1001400000000000000000000000000000000000AF
:10015000000000000000000000000000000000009F
:10016000000000000000000000000000000000008F
:10017000000000000000000000000000000000007F
:10018000000000000000000000000000000000006F
:10019000000000000000000000000000000000005F
:1001A000000000000000000000000000000000004F
:1001B000000000000000000000000000000000003F
:1001C000000000000000000000000000000000002F
:1001D000000000000000000000000000000000001F
:1001E000000000000000000000000000000000000F
:1001F00000000000000000000000000000000000FF
:1002000008B5094800F006FA002204210A2001F08E
:100210003DFA064B186008B1002008BD044800F004
:10022000F9F9002008BD00BFFC340000A800002040
:100230001035000010B582B004460B48019400F060
:10024000E9F90A4800231A4601A9006801F03EFABC
:10025000074800F0DFF9204600F0DCF9054800F01F
:10026000D9F902B010BD00BF44350000A80000203D
:100270005C3500004035000010B51F49044602F00F
:1002800043FB38B9642000F053FABDE810401B4826
:1002900000F0C0B91A49204602F036FB38B9642094
:1002A00000F06EFABDE81040164800F0B3B91649E8
:1002B000204602F029FB58B11449204602F024FBE5
:1002C00068B900F093FABDE81040114800F0A2B9F7
:1002D00000F07EFABDE810400E4800F09BB90E49D0
:1002E000204602F011FB00B110BD00F08DFABDE810
:1002F00010400A4800F08EB98C350000943500009B
:10030000A4350000B0350000C0350000D435000031
:10031000DC350000C8350000EC350000F435000085
:100320002DE9F043164E83B0306801F08DFA054692
:10033000ADB2144800F06EF9FDB1DFF84C90DFF873
:100340004C80002401E0AC4217D0002330681A46EC
:1003500001A9013401F008FA0028F4D1019F4846B0
:1003600000F058F9384600F055F9404600F052F9CF
:100370003846FFF781FFAC42E7D103B0BDE8F08318
:10038000A8000020003600001C36000040350000A8
:1003900008B50621282000F015F90C4800F03AF9BC
:1003A00000F0B8F900F05CFCFFF72AFF0848FFF7FF
:1003B00041FFFFF7B5FF00F06FFC022108464FF048
:1003C000FF3200F0CFF8002008BD00BF2836000043
:1003D0008C3500004FF0FF320221042000F0C2B83B
:1003E0004FF0FF320121042000F0BCB84FF0FF3283
:1003F0000021042000F0B6B804214FF0FF32084677
:1004000000F0B0B808B52549254B994221D2013BEF
:100410005B1A9D08032B0A4605F101053BD9214EC5
:100420006C08334606EBC404D3F800C05868C2F821
:1004300000C008339C42506002F10802F4D1EA0780
:1004400007D525F0010506EB850301EB85021B6846
:100450001360154A154B9A4218D2013B991A8C0821
:100460000329134604F101040ED9600802EBC00011
:1004700000211960596008338342FAD1E30705D59A
:1004800024F0010402EB84020023136000F010F852
:10049000FFF77EFFFEE7034BD9E700BF0000002017
:1004A000A40000201C380000A80000202C87002099
:1004B00010B44FF0E0220849D2F8883D4FF0804058
:1004C00043F47003C2F8883D0124044B04600B60C0
:1004D0005DF8044B704700BFAC0000200090D003D3
:1004E0004FF47A7300BF00BF00BF00BF00BF00BF62
:1004F00000BF00BF00BF00BF00BF00BF00BF00BF04
:1005000000BF00BF00BF00BF00BF00BF00BF00BFF3
:1005100000BF00BF00BF00BF00BF00BF00BF00BFE3
:1005200000BF00BF00BF00BF00BF00BF00BF00BFD3
:1005300000BF00BF00BF00BF00BF00BF00BF00BFC3
:1005400000BF00BF00BF00BF00BF00BF00BF00BFB3
:1005500000BF00BF00BF00BF00BF00BF013BC1D153
:10056000704700BF154B2DE9F04114460646585C14
:10057000134F884600F098F8621C01D0002C17DD5C
:10058000BD5D284600F082F84FF4FA72FFF7A8FF2D
:10059000013AFBD1284600F087F84FF4FA72FFF7D2
:1005A0009FFF013AFBD1631CEBD0013C002CE7DC40
:1005B00017F80800BDE8F04100F068B848360000C0
:1005C00050360000F8B5124C00250E460746294665
:1005D0003046C4F8005500F03DF82946384600F092
:1005E0002DF8304600F052F801234FF0EB71042251
:1005F000C4F80C65C4F81475C4F82415C4F86C5517
:10060000C4F80025A3602360C4F80851F8BD00BFFA
:100610000020004003786BB1074A0021C2F81C3566
:10062000D2F81C31002BFBD0C2F81C1110F8013F8E
:10063000002BF3D1704700BF002000401F288ABF65
:10064000024B034B203843F820107047000A00503B
:10065000000700501F2830B40DD9084C084A203834
:100660001568012383402B4341F00101136044F8D6
:10067000201030BC7047034C034AF1E7000A0050D9
:100680001408005000070050140500501F288ABFAE
:10069000034A044A2038012383401360704700BF97
:1006A00008080050080500501F288ABF034A044A62
:1006B0002038012383401360704700BF0C080050AE
:1006C0000C0500502DE9F04100240E4DDFF840806C
:1006D0000D4F26462B684BB158F8243057F824208C
:1006E000013348F8243002B190472E600134082CC1
:1006F00005F10405EED1054A136801331360BDE826
:10070000F08100BF00610040D4000020D000002034
:10071000B000002008B50021042000F041F9BDE838
:1007200008400121032000F03BB900BF0000000099
:1007300010B5044600F2EE200021400000F056F90A
:10074000204602F037FC0AA3D3E9002302F09CFC08
:1007500002460B4608A1D1E9000102F0DDFA02F0E1
:10076000A5FEBDE81040012100F040B9AFF30080C4
:10077000CDCCCCCCCCCCF43F000000000070974036
:1007800010B50446C0F53B7002300021400000F077
:100790002DF9204602F00EFC09A3D3E9002302F054
:1007A00073FC09A3D3E9002302F0B8FA02F07EFE3D
:1007B000BDE81040012100F019B900BFAFF300807F
:1007C000CDCCCCCCCCCCF43F0000000000709740E6
:1007D00008B5002140F2DC5000F008F9BDE80840FF
:1007E00001214FF47A7000F001B900BF08B5002173
:1007F0004FF4FA6000F0FAF8BDE80840012140F239
:10080000DC5000F0F3B800BF08B5002000F0DEF8BF
:10081000BDE80840012000F0D9B800BF000000008A
:10082000431E022B30B4C0EBC001494D53D8494C94
:1008300054F8234045F8314005EBC102464951F8D0
:1008400023105160454951F823109160444951F8F3
:100850002310D160434951F823101161424951F8E6
:1008600023105161414951F823109161404951F8D9
:100870002310D1613F4951F8231011623E4951F8CC
:10088000231051623D4951F8231091623C4951F8BF
:100890002310D1623B4A52F823404FEAC00CACEB24
:1008A000000105EBC1010C63374951F82010032BFF
:1008B0002FD8DFE803F00A020E0C3449ACEB00023B
:1008C00005EBC203596330BC70473149F6E7314943
:1008D000F4E73149F2E79FED127B05EBC10181EDB1
:1008E000007B9FED117B81ED027B9FED117B81ED04
:1008F000047B9FED117B81ED067B9FED117B81EDEC
:10090000087B9FED117B254C81ED0A7B4FEAC00CE3
:10091000C5E701F1804101F5E031CFE7AFF3008099
:1009200004C0014008C0014004C1014010C10140A1
:1009300018C1014000C5014008C501400CC5014077
:1009400010C5014020C5014024C5014028C5014013
:10095000F8000020E8360000DC360000D036000049
:10096000C4360000B8360000AC360000A0360000E7
:1009700094360000883600007C3600007036000097
:100980006436000058360000F43600006825024046
:100990006415024000C001406CD502402CC50140E6
:1009A00010B504460846FFF73BFF074BC0EBC000FD
:1009B00003EBC0030520D9690860596B0C605B69C3
:1009C00001221A6010BD00BFF8000020C0EBC0007B
:1009D000054BC00001211A58034411609B6803B9FC
:1009E000FEE700221A607047F800002010B40E4B9A
:1009F0000E4AC1EBC10103EBC1010424CB691C60A9
:100A000041F28834201A108088690460486A0260C4
:100A10008A6A01231360CA6A002010604A68136062
:100A20005DF8044B704700BFF8000020D80100209B
:100A3000F8B5544D2B7A012B7CD0002B40F09B80D5
:100A4000514CE66A238AE268A5F85430216BA3680A
:100A5000EA6530462B6400F039F908B1C5F88060CA
:100A6000D4E90571384600F031F9002878D0D4E98E
:100A7000076130466F6700F029F9002865D0D4E996
:100A800009713846AE6700F021F9002856D0666B30
:100A9000EF673EB1D6E902233168304600F0A6F98F
:100AA000C5F88460A66B3EB1D6E9022331683046B2
:100AB00000F09CF9C5F88860E66B3EB1D6E90223E8
:100AC0003168304600F092F9C5F88C60266C3EB172
:100AD000D6E902233168304600F088F9C5F8906005
:100AE000666C3EB1D6E902233168304600F07EF9EB
:100AF000C5F89460A66C3EB1D6E902233168304651
:100B000000F074F9C5F89860E66C3EB1D6E90223AE
:100B10003168304600F06AF9C5F89C60246D3CB13C
:100B2000D4E902232168204600F060F9C5F8A0400E
:100B300001232B7201F0EAFD0020F8BD666BD5F8A9
:100B40008070EF67002EA5D1ACE7D4E90971D5F824
:100B50008060AE67384600F0B9F8002897D1EDE71D
:100B6000D4E90761D5F880706F67304600F0AEF8C1
:100B7000002884D1E9E74FF0FF3001F0C3FD4FF0CA
:100B8000FF30F8BD000000204837000070B5284C49
:100B9000237A012B47D101F047FC00283CD0254A9D
:100BA000FF2382F8223092F82230D26863F0FF03EC
:100BB000DB432DD0B3FA83F3C3F12003C2F3022247
:100BC000934227D9FE2202FA03F31B4E194A1B490E
:100BD0007068DBB2D37701F043FD0546E0B901F060
:100BE0007DFD206101F062FD154800F089FF01F0F4
:100BF000A3F83368DB074CBF0223032383F3148875
:100C0000BFF36F8F0223237201F084FD284670BD6D
:100C1000C2F30222531CD5E74FF0FF3001F072FD02
:100C20004FF0FF35F2E76FF0060001F06BFDF7E7DC
:100C30000000002000ED00E04837000043260000DF
:100C40001C000020704700BF38B504460D4601F077
:100C500063FD29462046BDE8384001F045BD00BF90
:100C600008B5FFF7EFFF01F04FFDEFF305834BB938
:100C7000EFF3108333B9EFF311831BB9DFF814C01E
:100C800000DF08BD6FF0050001F03CFD6FF00500CE
:100C900008BD00BF310A000008B501F039FDEFF3CF
:100CA00005834BB9EFF3108333B9EFF311831BB90D
:100CB000DFF814C000DF08BD6FF0050001F022FD71
:100CC0006FF0050008BD00BF8D0B000070B5034636
:100CD0000C4620B140EA010212F0070506D0184682
:100CE0000022214601F002FD002070BD1729F6D92F
:100CF000A1F108042218102619608260466005518F
:100D0000846801226660C56001F0F0FC012070BDBE
:100D100070B5C0B3B9B3032A35D801F10F058468A3
:100D200025F0070500F1080E03E02368A64653B33B
:100D30001C46DEF80460A4EB0E0326F0030CA3EBC4
:100D40000C039D42F1D8446803682C44034444607A
:100D500053F8046C083BB44288BF5C60DEF8043092
:100D6000BBB123F003030EEB0304DEF800604EF882
:100D7000036015436560CEF800400834234601F057
:100D8000B7FC204670BD0023002401F0B1FC2046D2
:100D900070BD1543CEF804500EF10804EEE700BF15
:100DA00010B5D8B1D1B1A1F1080C00F108030024AD
:100DB00003E01A681C468AB113466345F9D15A68A4
:100DC00022F0030C4268A2EB0C0242605CB11B688B
:100DD0002360012201F08EFC012010BD002201F0F1
:100DE00089FC002010BD5C60F3E700BFF8B58646C3
:100DF00030B30C4629B315462AB31E462BB302FB6B
:100E000001F74FF0000CCEF80010C0E90223CEF835
:100E10001430C0F804C003EB070CC0F810C001F098
:100E20006BFCB4F1010C08D031460846BCF1010C52
:100E300029440160F9D17F1B3E4400233360012027
:100E4000F8BD0846F8BD1046F8BD1846F8BD00BF0D
:100E500070B50446D8B100F1140353E8001F11B96E
:100E6000BFF32F8F04E00A6843E8002000B1F4E7E5
:100E70000D4639B1231D53E8002F501C43E80006EE
:100E800006B1F8E7204601F039FC284670BD01465E
:100E900001F034FC2546F8E7F8B50C46034608B3E4
:100EA000C2688A421ED802698A421BD900F1140224
:100EB00015680D60BFF35F8F52E8005F0E68AE42A9
:100EC000F6D142E8001707B1F2E7043353E8002FE8
:100ED000541E43E8004505B1F8E7002201F010FC7C
:100EE0000020F8BD18466FF00302214601F008FC0F
:100EF0006FF00300F8BD00BF2DE9F04F83B000286C
:100F000046D00F46002943D01546B1FA81F3B0FA16
:100F100080F213441F2B06463ADD01F1030828F046
:100F2000030808F10C0808FB00FB002D37D0AC6863
:100F3000D5F800A0D5E90432002C69D0A10770D102
:100F4000E96833296DD9002B38D099076FD19345C3
:100F50006DD8DFF8109100250020A060A062E0624B
:100F60002063FA2031462070A570C4F804A067629F
:100F7000424604F10C00FFF739FF394BC9F87030D5
:100F80006168204601F0F4FB204603B0BDE8F08F15
:100F90006FF00301002001F0E7FB0024F4E7AA460C
:100FA000DFF8C090D9F8A000002846D0FFF750FF26
:100FB00004463CB3B5B12B460125CDE7BABBDFF8FB
:100FC000A4901A46D9F87C005946FFF7A1FE0346C3
:100FD000C0B1022518465A460021019301F034FCA5
:100FE000019BB9E72A46D9F87C005946FFF790FEE5
:100FF000032503460028EDD1D9F8A00048B32146C7
:10100000FFF74AFF6FF00401002001F0ADFBC4E7D9
:10101000E96831B9CBB1980709D1934507D81D4686
:10102000BEE76FF00801002001F09EFBB5E76FF00E
:101030000901002001F098FBAFE7D9F880000122F8
:101040003421FFF765FE0446B3E7002AEFD11546C9
:10105000A6E7D9F880002146FFF7A2FED2E700BF3D
:10106000B91100000000002010B5044610B103784B
:10107000FA2B05D02046002101F092FB002010BD84
:10108000816A01F08DFBA06A10BD00BF2DE9F84315
:101090000446002800F0868099460378FA2B40F039
:1010A0008180884600297DD08568174615B16B7808
:1010B000832B52D004F10C00FFF7CAFE0646C8B1DC
:1010C0004146626A0C3001F089FDF923002133703A
:1010D000B170F770236B23B95BE05D68194605B307
:1010E0002B46DA78BA42F8D3C6E901319E60D9B905
:1010F00026631AE0B9F1000F27D0204641464A4640
:1011000001F03AFB4946932001F0C0F8002845D091
:10111000284B2046596900F0D9FC6FF00100BDE86A
:10112000F883C6E90153E6624E6004F1280353E8F0
:10113000002F511C43E8001000B1F8E7414620465B
:1011400001F020FB0020BDE8F8832046414601F075
:101150001BFB6FF00200BDE8F88301F013FB204693
:1011600000F0CEFC01220546002100F0E9FF2846F0
:1011700000F0D8FD4668626A05464146304601F0F7
:101180002DFDAB6803B11F703146204601F004FB12
:10119000D8E77360B360E6622663C6E7204601F0D5
:1011A000EDFABAE720466FF0030101F0DDFA6FF0C7
:1011B0000300B4E7000000202DE9F04186780446E2
:1011C000002E46D04368C668002B6AD082689A60B9
:1011D000A368002B6AD062685A60002506F10C07EC
:1011E000257021463846FFF757FEB368002B56D0CE
:1011F0003846FFF72DFE0446002850D0304600F058
:101200007FFC2A460746294600F09AFF384600F040
:1012100089FDD0F80480726A0746414604F10C004B
:1012200001F0DCFCF923A5702370387AE070336B91
:101230002BB982E05A681D46002A3AD01346DA7864
:101240008242F7D3C4E901359C60002D34D1346368
:1012500033E0D0E90115AB68284613B15B78832BE6
:1012600041D001F08FFA2B6B002B35D0E0780021B4
:1012700004E05A681946002A5BD01346DA788242A5
:10128000F7D3C4E901319C6000292AD04C6028358D
:1012900055E8003F5A1C45E8002101B1F8E7BDE8D8
:1012A000F0818368F362A368002B94D16368336391
:1012B00093E7C4E90123F4626C6006F1280353E864
:1012C000002F511C43E8001000B1F8E741463046BA
:1012D000BDE8F04101F056BA6360A360EC622C6394
:1012E000D5E72C63D3E701F04DFA284600F008FC5F
:1012F00032463146074600F023FF384600F012FD23
:1013000047686A6A064604F10C01384601F066FC3B
:10131000B3680BB1E2781A703946284601F03CFAFE
:1013200000232370214605F10C00BDE8F041FFF7D2
:10133000B3BDC4E90123EC62A8E76360A360F46273
:101340003463BAE72DE9F04F804683B0002800F0FF
:10135000D18093460278FA2A40F0CC808946002951
:1013600000F0C88000F1280A544654E8002F12B952
:10137000BFF32F8F04E0511E44E8001000B1F4E7E2
:10138000002A00F08680D8F82C40002C00F08180E4
:10139000012702E0A468002C7BD0A61CD6E84F5F92
:1013A000C6E8427F02B1F9E7EDB2002DF2D16368E1
:1013B000002B64D0A2689A60A368002B65D0626895
:1013C0005A60D8F8242004F10C01484601F006FCCC
:1013D000BBF1000F02D0E3788BF80030494640465D
:1013E000002508F10C0601F0D7F92570214630469A
:1013F000FFF752FDD8F80830002B3CD03046FFF7FD
:1014000027FD0446002836D0404600F079FB012233
:101410000646294600F094FE304600F083FC4668FC
:10142000D8F824200746314604F10C0001F0D6FB21
:10143000F923A5702370387AE070D8F830302BB9D2
:1014400049E05A681D46002A4FD01346DA78824296
:10145000F7D3C4E901359C60002D43D06C60504641
:1014600050E8003F5A1C40E8002101B1F8E731463E
:10147000404601F087F9002003B0BDE8F08FA36873
:10148000C8F82C30A368002B99D16368C8F83030B5
:1014900097E79BB11A4640464946019301F078F917
:1014A000019B8320194600F0F1FE80B1154B4046A8
:1014B000596900F00BFB6FF00100DDE7404649463B
:1014C00001F06CF96FF0020003B0BDE8F08F404608
:1014D00001F060F9EFE76360A360C8F82C40C8F83A
:1014E0003040BCE7C8F83040B9E7C4E90123C8F888
:1014F0002C40B3E740466FF0030101F035F96FF07F
:101500000300B9E7000000205D4B2DE9F047D3E967
:101510001A56002E42D0B6FA86F3032B3EDD06EBB8
:1015200086029700002D47D0AC68D5F80090D5E929
:101530000432002C4ED0A00740F08780E9683329A0
:1015400040F28380002B4FD013F0030A40F08580D7
:10155000974200F28280DFF830811D46FA222B4646
:101560002270002508223146626284F802A014220B
:10157000C4F80490A560A562E562256304F10C003F
:10158000FFF734FC3F4BC8F870302046616801F02B
:10159000EFF8C8F84C402846BDE8F0876FF003012B
:1015A000002001F0E1F8DFF8E0800024C8F84C40AA
:1015B0004FF0FF30BDE8F087A946DFF8CC80D8F8BF
:1015C000A00018B3FFF744FC0446C4B335B34FF092
:1015D000010AC3E7E968C1BB002B46D099073CD19B
:1015E00097423AD81D46E8E7BABBDFF89C803946F7
:1015F000D8F87C00FFF78CFB054600B34FF0020AD9
:101600003A460021284601F01FF9A7E7D8F88000E4
:1016100001223421FFF77CFB0446D6E72A46D8F89E
:101620007C003946FFF774FB4FF0030A054600289B
:10163000E6D1D8F8A000E0B12146FFF72DFC6FF00D
:101640000401002001F090F8AFE76FF008010020DE
:1016500001F08AF8DFF83080A7E76FF00901002079
:1016600001F082F8DFF820809FE7002AF5D11546C7
:10167000A3E7D8F880002146FFF792FBDFE700BF21
:1016800048370000B91100000000002070B5064680
:101690000D46144601F06AF8EFF3058363B9EFF3E2
:1016A00010834BB9EFF3118333B9DFF81CC0304618
:1016B0002946224600DF70BD6FF00501002001F0D1
:1016C00053F8002070BD00BFF90E00002DE9F04175
:1016D00005460F4690461E4601F04CF8EFF3058391
:1016E00013B9EFF310830BB36DB32B78FA2B2AD118
:1016F0004FB346BB05F10C00FFF7AAFB044650B3FD
:101700006A6A39460C3001F069FAF92320462370E1
:10171000C4E9017584F80380A67000F04BF92846EF
:10172000394601F02DF83046BDE8F081EFF3118322
:10173000002BD9D1DFF82CC0284639464246334623
:1017400000DFBDE8F08128466FF0030101F00CF8DE
:101750006FF00300E8E72846394601F015F86FF00E
:101760000200E1E78D1000002DE9F84307468846A6
:1017700091461C4601F00AF8EFF305831BB9EFF31D
:101780001083002B40D0002F53D03B78FA2B50D140
:10179000B8F1000F4DD0002C4BD107F1280353E8CE
:1017A000002F12B9BFF32F8F04E0511E43E8001041
:1017B00000B1F4E7002A34D0FC6A002C31D00126B5
:1017C00001E0A4686CB3A51CD5E84F3FC5E8426FA3
:1017D00002B1F9E7DBB2002BF3D17A6A04F10C0114
:1017E000404601F0FBF9B9F1000F02D0E37889F827
:1017F00000302046E76000F0DDF83846414600F052
:10180000CBFF0020BDE8F883EFF31183002BBAD1A2
:10181000DFF830C0384641464A46234600DFBDE87F
:10182000F8833846414600F0B9FF6FF00200BDE88A
:10183000F88338466FF0030100F096FF6FF0030065
:10184000E0E700BF4513000010B50446EFF3058341
:1018500013B9EFF310834BB114B12378FA2B0DD0E9
:101860002046002100F09CFF002010BDEFF3118303
:10187000002BF1D1DFF810C000DF10BD2046A16AB7
:1018800000F08EFFA06A10BD6910000038B51E4C34
:1018900000F020FFE3680133E36000F095F90020D9
:1018A00000F052FA236D03B19847236C5BB1A26933
:1018B000E16B914208D0E263D169002918BF0B4661
:1018C000013BD3611BB138BDD369002BF8D1237A1A
:1018D000022BF8D1656A002DF5D0E36B95F9202035
:1018E00093F920309A42EED1284600F041F9E06B9E
:1018F00000F048F9E06B00F01BFF284600F01CFAEE
:10190000236CE563EB6138BD0000002070B5284E04
:1019100006F1560406F15A05B6F85420D4E85F3FA4
:1019200013B9BFF32F8F04E0591EC4E8501F00B154
:10193000F4E79BB2002B36D0D5E85F3F591C8A42B2
:1019400000D80021C5E8501F00B1F5E7F26D9BB249
:1019500052F8230038B30378F13B082BDCD801A2FE
:1019600052F823F0A1190000191900009B1900007A
:101970001919000019190000951900008F190000AD
:101980001919000089190000336F9847C4E7F36EF6
:101990009847C1E7B36E9847BEE7736E9847BBE7B9
:1019A000336E9847B8E7BDE87040002000F0CCB92E
:1019B0000000002070B41A4A0146B2F8543002F117
:1019C0005604D4E85F0F834202D8BFF32F8F04E0A0
:1019D000451CC4E8565F06B1F3E780B2834203D8E2
:1019E00070BC0220FFF730B902F15804D4E85F0F51
:1019F000451CAB4200D80025C4E8565F06B1F5E7A8
:101A000083B2D46D44F82310537A1BB1012393722F
:101A100070BC7047034B4FF080525A6070BC7047E7
:101A20000000002000ED00E0F8B5264E756907467D
:101A30000C46284600F078FE631C6F7011D0F36AE4
:101A400000202BB938E019691846A41A21B30B46B7
:101A5000DA69A242F7D9C5E90430EC6108B305613F
:101A600020E0336B1BB31A461B69002BFBD14FF0F0
:101A7000FF31C5E90432E9611561706A83687362F8
:101A80000BB1114ADA6000220223C2604370B061D8
:101A900000F050FE0120F8BDC5E90413EC611D61A2
:101AA000EBE7F562DA695D61121BDA61E5E7EC618B
:101AB0002B616B613563E0E7EC612B616B61F56273
:101AC000DBE700BF000000201C000020836891F9C4
:101AD00020C023B910E09A6818464AB1134693F91A
:101AE00020206245F7DAC1E902308160D960704791
:101AF000C1E9022399607047C1E9023081607047F3
:101B00000346806882689A6002B1D3600023C36094
:101B1000704700BF034610B924E0DB68EBB11A78C8
:101B2000F12AFAD0C26832B18168916009B1C26805
:101B3000CA600022C2609A6890F920C022B912E0FF
:101B40009168134651B10A4692F920106145F7DABF
:101B5000C0E902239860D06070477047C0E9021264
:101B6000906070477047C0E902239860704700BFDB
:101B7000C36833B182689A600AB1C368D360002336
:101B8000C360704701230F4943704B6A90F920C02E
:101B900093B11C3103E09A6819464AB1134693F990
:101BA00020206245F7DAC0E902318860D8607047CA
:101BB000C0E902239860704701F11C02C0E90232BB
:101BC00048627047000000202DE9F041544DEC6A56
:101BD00082B0002C46D0E669013EE661002E41D17C
:101BE00005F11C0801276378632B7FD04FD8432B66
:101BF00000F0878039D8132B69D0332B02D12046CF
:101C000000F09EFD94F82230A26B13F0100F14BF69
:101C1000202360232046D15800F088FDE3682BB1D3
:101C2000A2689A600AB1E368D360E66067706B6A85
:101C300094F9200041462BB96EE09A681946002AB3
:101C400041D0134693F920208242F6DAC4E90231EA
:101C50008C60DC60246924B1E369002BC3D00023CD
:101C60006361EC6202B0BDE8F081532BCAD12378E6
:101C7000F12B204603D1C0680378F12BFBD021461D
:101C8000019000F0C1FD019800F064FDBAE7832BDC
:101C900021D0932B0AD12378F12B204603D1C068A1
:101CA0000378F12BFBD000F069FDABE7732BA9D1D2
:101CB0002378F12B204603D1C0680378F12BFBD0A9
:101CC00000F050FD9EE7C4E902239C60C2E7204675
:101CD00000F03AFD96E72378F12B204603D1C06847
:101CE0000378F12BFBD000F055FD8BE72378F12B27
:101CF000204603D1C0680378F12BFBD000F030FD03
:101D000080E72378F12B204603D1C0680378F12BBC
:101D1000FBD000F01DFD75E7C4E902386C6299E75D
:101D20000000002090F82230806B13F0100F14BFD9
:101D30002023602318447047024A022141709061B9
:101D400000F0F8BC0000002070B53F4D2B7A6A69A6
:101D500000283CD0022B90F920C004464FF001032C
:101D600013D063706B6A002B5AD0384904E09A682C
:101D70001946002A50D0134693F920206245F6DA1E
:101D8000C4E902318C60DC6070BD92F920008445AA
:101D9000E7DD53706B6A05F11C062BB949E09968C1
:101DA0001E46002941D00B4693F920108142F6DCF3
:101DB000C2E90236B260DA60104600F0B9FC0223D4
:101DC0006370AC612046BDE8704000F0B3BC022BEC
:101DD0006C6AD9D1002CD7D092F9200094F9203028
:101DE0008342D1DDE36843B1A168996009B1E3683A
:101DF000CB600023E36092F92000012353706B6AEB
:101E0000EBB1124E03E099681E4671B10B4693F98F
:101E100020108142F7DCCBE7C4E902239C6070BD4F
:101E20000A4AC4E902326C6270BDC2E902139A60C8
:101E3000C2E705F11C01C2E902316A62BCE703494D
:101E4000C2E902316A62B7E7000000201C000020EE
:101E50002DE9F04F85B0002800F049818A461546EB
:101E60000746002A00F0BA8013680093D2E90134D3
:101E7000D5F81890D2E90426002C00F0948014F0D4
:101E8000030840F0DF80E968432940F2DB80002A44
:101E900000F0DE805107904640F0B680002E00F042
:101EA000B380B9F1000F40F0B9804FF0180916F077
:101EB000070C40F0A9809C49A6F14800884200F236
:101EC000A380002C00F00881002A00F0F280DFF8E7
:101ED0006CB2964915466246E370B044009B63605D
:101EE000A8F14003A3630023A2704FFA89F90A689E
:101EF000E763194669F3070169F30F2140F2F11016
:101F0000218420808A49E362FD205207C4E90C56EF
:101F1000C4E90233C4E90433C4E90633C4E909332C
:101F2000608429601AD5B608B6F1110C16D0122EAD
:101F300011D0133E72080132291D4FF0CC3001330D
:101F40009A420860486001F10801F8D8BCEB420FE2
:101F500004D005EBC2054FF0CC336B60A36B754921
:101F6000C3F820A000221A605A609A60DA601A61F1
:101F70005A619A61DA619A62DA621A635A636E4A46
:101F80009A634FF080725F62DA63CBF86010626828
:101F9000E16B204600F0C4FB2046FFF7D5FE20464B
:101FA00005B0BDE8F08FD5F80C80B8F1000F49D12D
:101FB000002A7FF46FAFB9F1000F00F08F8009F1B4
:101FC000FF32372A2FD8002E40F0A080B046002CD8
:101FD00000F08B80DFF864B112224BE00092904653
:101FE0004FF0180916461346DFF850B10193DBF89D
:101FF0008800F0B1FEF72CFF019B0446002C52D064
:102000009DB34A49012267E76FF00A01002000F002
:1020100085FB0024204605B0BDE8F08F09F1FF31B3
:1020200037297FF644AF6FF00B01002000F076FBFC
:10203000EFE7DBF8800001224421FEF769FE019BF7
:102040000446DBE76FF00801002000F067FBE0E7E3
:10205000B9F1000FB3D1002E7FF427AFC846DFF8E7
:10206000DCB012224FF0180904E0002E52D11322E6
:102070004FF001082D49DBF884004E6D029201916A
:10208000002839D00393FEF7E3FE01A90EC90546E7
:1020900000BBB8F1000F06D0DBF8880000283CD068
:1020A0002146FEF7F9FE6FF00401002000F036FB38
:1020B000AFE7DFF888B09046DBF8740001930022A8
:1020C0003146FEF725FE019B0546002DE1D017495C
:1020D00048F00202A846FFE6154685E7002E7FF489
:1020E000E4AE35464FF018097EE735467CE76FF0E1
:1020F000030100F013FB8CE702463146DBF8740065
:102100000193FEF705FE019B0546DEE74FF0000850
:102110004246CCE64FF00108CEE7DBF880002146CE
:10212000FEF73EFEBFE700BFB7FFFF7F4837000066
:10213000A52E5AE2F92100008924000000000020A9
:1021400070B504460E46154600F0F0FA94F82230B9
:10215000A26B13F0100F14BF20236023D650E26946
:102160002369511C26D033B1D9691144D961D4E90E
:1021700004325A6123696269002A2DD0002113615B
:1021800061610023E36115BB01231A4963704B6A47
:1021900094F920003BB31C3103E09A681946F2B170
:1021A000134693F920208242F7DAC4E902318C60A9
:1021B000DC6070BD13B162695A6123696269002AEB
:1021C000DCD10C4A13630023E361002DDCD02046F0
:1021D000BDE87040FFF7B8BD064AD362D1E7C4E955
:1021E00002239C6070BD01F11C03C4E902534C62E0
:1021F00070BD00BF000000204378332B00D0704733
:1022000070B590F82320436A9107044616D412F063
:10221000010F00F1280227D052E8005F05EA030110
:10222000994203D0BFF32F8F002505E025EA030173
:1022300042E8001000B1EFE72DB970BDD207856A02
:102240000FD42B42F9D0294620460022FFF778FF11
:1022500094F82310606A23462A46BDE8704000F0D7
:1022600071BAAB43E8D070BD52E8005F1D4203D1A4
:10227000BFF32F8F002505E025EA030142E8001097
:1022800000B1F1E7002DD8D0DDE700BF044B1A7A8A
:10229000022A03D15B6A0BB1FFF7C6BB002070476F
:1022A00000000020704700BF10B50446FFF7FAFF9A
:1022B000A378002222809A0709D513F0100F216B12
:1022C0000F4B10D0D3F88400FEF7E6FDA378DB07B0
:1022D00008D50B4BD3F8880050B12146BDE810401B
:1022E000FEF7DABD10BD586FFEF75AFDA378EEE792
:1022F0002146D3F88000BDE81040FEF751BD00BF75
:102300000000002070B5464C237A022B6BD1636A23
:10231000002B68D06569E86A00F044FAAE69002EC7
:102320003AD00021304600F001FA96F82230B26B24
:1023300013F0100F14BF202360230021D150F26945
:102340003369511C58D033B1D9691144D961D6E9E8
:1023500004325A6133697269002A5AD0136100232A
:10236000736101230022F2617370636A96F92000A1
:10237000002B50D02B4904E09A681946002A44D01B
:10238000134693F920208242F6DAC6E902318E60C4
:10239000DE60A86900F0C6F96B78232B02D1AB6828
:1023A00000229A61606A836863620BB11D4ADA6039
:1023B00002230026C6604370A06100F0BBF9EFF372
:1023C00009826661EB78AA63DB070DD504236B7085
:1023D000EE60636BAB6003B1DD6065632846BDE80A
:1023E000704000F0ABB970BD2846FFF75DFF28468E
:1023F000BDE8704000F0A2B913B172695A61336947
:102400007269002AAAD12363ABE7C6E902239E6062
:10241000BFE7E362A5E7034AC6E902326662B8E7AE
:10242000000000201C00002038B50D4C0D48A26DA6
:102430000D4D0021FFF70CFD636EA8626BB198474C
:1024400008B1002038BDE26DE96C206EFFF700FD99
:10245000A864003818BF012038BD012038BD00BF76
:1024600048370000E52600000000002008B500F015
:1024700063F9DFF810C000DF4FF0FF31002000F0FB
:102480004DF9FEE70523000008B58847FFF7EEFF8A
:102490002DE9F8432D4D6C6CFCB12369D5F81490EF
:1024A000013B23610126B3B9E76817B1A368BB609C
:1024B000E768E86C6F6400231A4604F11801FFF71F
:1024C00005F960B9E378012B1BD066706C6C14B110
:1024D0002369002BE8D0C5F81490BDE8F883AB69F8
:1024E000D5F814806B6121460320FEF7ADFB6B69C4
:1024F000002BE7D1E378C84508BF4FF00009012B56
:10250000E3D16B6C62694FF0000C2BB919E0D8680D
:102510009C46521A88B1034619699142F7D9C4E919
:1025200002C3226119699C60891A1961BCF1000F0C
:102530000AD0CCF80C406C6CC9E7C4E90302A36074
:10254000F7E72261A360E3606C64C1E7000000204C
:1025500008B5FEF7D9FF18B9034B044A1A6508BD40
:102560004FF0FF3008BD00BF0000002091240000A4
:1025700000B5044683B04FF0FF3300226946204681
:10258000FFF7F2F80028F6D1DDE9000100F0DEF8EF
:10259000DDE900309847EEE71EF0040F0CBFEFF3C3
:1025A0000880EFF30980816911F8021C002932D1FB
:1025B00001B590E80F10E047BDE80050CCF80000EE
:1025C000244B93E80600914208BF70471A6041B956
:1025D0001EF0100F10D1204B186820F00100186079
:1025E0000AE02CE9F00F1EF0100F08BF2CED108A46
:1025F00081F822E0C1F838C0906B92F8221061F0A7
:10260000FF0E1EF0100F08BFB0EC108AB0E8F00FFC
:1026100080F309887047114A13689942FAD801B5C6
:1026200052F821C00FC8E047BDE80050CCF80000C8
:10263000704701B5FFF76AF9BDE80140EFF3098C77
:10264000BEE701B5FFF722F9BDE80140EFF3098CC1
:10265000B6E700001400002034EF00E0B8370000B7
:10266000D0B10F4B1B68B3FBF0F3013BB3F1807F9C
:1026700012D20C4810B44FF0E0210B4C4FF0FF0C7D
:1026800080F823C00022062008614B618A61227015
:1026900010465DF8044B70474FF0FF30704700BFA5
:1026A000AC00002000ED00E028870020074B1A78DE
:1026B0002AB1074A00204FF08061187051604FF036
:1026C000E022136943F0010313617047288700205B
:1026D00000ED00E04FF0E0231B6970474FF0FF3042
:1026E000704700BFFEE700BFFEE700BF704700BFB6
:1026F000704700BF704700BF704700BF704700BF02
:10270000704700BF704700BF704700BF704700BFF1
:10271000704700BF704700BF704700BF704700BFE1
:10272000704700BF704700BF704700BF704700BFD1
:10273000704700BF704700BF704700BF704700BFC1
:10274000704700BF704700BF704700BF704700BFB1
:10275000704700BF704700BF704700BF704700BFA1
:10276000704700BF704700BF704700BF704700BF91
:10277000704700BF704700BF704700BF704700BF81
:10278000704700BF704700BF704700BF704700BF71
:10279000704700BF704700BF704700BF704700BF61
:1027A000704700BF70B32DE9F041054600274FF098
:1027B00001082C466D69E3781B0703D4002DF8D17E
:1027C000BDE8F081204600212776FFF7C7FFA36808
:1027D0002046002BF2D0FFF793F90022064611465F
:1027E000FFF7AEFCC4E90367F36A63610121204689
:1027F00003B11C61F46284F81880FFF7ADFF002D6F
:10280000D7D1DDE7704700BFC3789B0717D5C068F5
:1028100090F921C0C36ADA78920709D59A688A428A
:1028200008BF8A6822B192F920209445B8BF944627
:102830005B69002BEFD190F92030634500D17047E0
:1028400080F820C0FFF766B9830730B547D0541E23
:10285000002A3ED0CAB2034601E0013C39D303F856
:10286000012B9D07F9D1032C2CD9CDB205EB052501
:102870000F2C05EB054535D9A4F1100222F00F0C01
:1028800003F1100EE6444FEA121C1A46156055601B
:102890009560D56010327245F8D10CF1010214F048
:1028A0000C0F03EB021204F00F0C13D0ACF1040375
:1028B00023F003030433134442F8045B9A42FBD130
:1028C0000CF003042CB1C9B21C4403F8011B9C4258
:1028D000FBD130BD64461346002CF4D1F9E7034622
:1028E0001446C0E71A46A446E0E700BF0000000017
:1028F00000000000000000000000000000000000D8
:10290000A2EB0300704700BF02780B78012A28BFB2
:102910009A42F5D16DE9044540EA0104CDE9026728
:102920006FF0000C4FEA447212B380EA010414F015
:10293000070F6AD100F0070420F0070004F0030538
:1029400021F007014FEAC505F0E8042314F0040F55
:10295000F1E804670CFA05F462EA040266EA040688
:102960000AD063EA0403624667EA0407664603E0A6
:10297000F0E80423F1E8046782FA4CF582EA0604E1
:10298000A4FA8CF46CBB83FA4CF583EA0705A5FA2C
:102990008CF595B950E9022351E9026782FA4CF5AA
:1029A00082EA0604A4FA8CF483FA4CF583EA07055C
:1029B000A5FA8CF52543DBD09CB92DBAB5FA85F480
:1029C00024F0070427FA04F1DDE9026723FA04F38F
:1029D00003F0FF0001F0FF01FDE80445A0EB01005A
:1029E000704724BAB4FA84F424F0070426FA04F1F8
:1029F000DDE9026722FA04F202F0FF0001F0FF01B4
:102A0000FDE80445A0EB0100704714F0030F3CD132
:102A100010F0030428D150F8082B51F8083B82FA33
:102A20004CF582EA0305A5FA8CF55DB950F8042C43
:102A300051F8043C82FA4CF582EA0305A5FA8CF5BC
:102A4000002DE8D02DBAB5FA85F424F0070423FA56
:102A500004F122FA04F202F0FF0001F0FF01FDE8A8
:102A60000445A0EB010070474FEAC40420F00300C6
:102A700050F8082B21F0030151F8083B0CFA04F43C
:102A800062EA040263EA0403C9E710F003041AD0FF
:102A9000A1EB040120F00300E40750F8042B06D05A
:102AA0000FD28B785FFAA2F4E41A06D12BB1CB785F
:102AB0005FFAB2F4E41A00D11BB920465DF8104B5E
:102AC000704701F1040150F8042BCC0721F00301F9
:102AD00051F8043B48D824D222F07F4482FA4CF5C6
:102AE00094EA1325A5FA8CF50AD165B951F8043B8F
:102AF00084EA0204B4EB036F0ED150F8042BEBE729
:102B00004FEA132355E035F07F454DD10878FDE8B5
:102B10000445C0F1000070474FEA126203F0FF0362
:102B200047E002EA1C4482FA4CF594EA1345A5FA00
:102B30008CF50AD165B951F8043B84EA0204B4EB80
:102B4000034F0CD150F8042BEBE74FEA134330E06E
:102B500015EA1C4528D10B884FEA124229E04FEABA
:102B6000124203EA1C4324E002F0FF0482FA4CF50F
:102B700094EA1365A5FA8CF50AD165B951F8043BBE
:102B800084EA0204B4EB032F09D150F8042BEBE7DD
:102B90004FEA13630DE015F0FF0F05D10B684FEA04
:102BA000122223F07F4304E04FF00000FDE80445CB
:102BB000704712BA1BBA82FA4CF482EA0304A4FAF0
:102BC0008CF5B5FA85F402FA04F203FA04F34FEA3D
:102BD0001260FDE80445A0EB13607047844641EAAB
:102BE000000313F003036DD1403A41D351F8043B85
:102BF00040F8043B51F8043B40F8043B51F8043BD7
:102C000040F8043B51F8043B40F8043B51F8043BC6
:102C100040F8043B51F8043B40F8043B51F8043BB6
:102C200040F8043B51F8043B40F8043B51F8043BA6
:102C300040F8043B51F8043B40F8043B51F8043B96
:102C400040F8043B51F8043B40F8043B51F8043B86
:102C500040F8043B51F8043B40F8043B51F8043B76
:102C600040F8043B51F8043B40F8043B403ABDD2E5
:102C7000303211D351F8043B40F8043B51F8043B87
:102C800040F8043B51F8043B40F8043B51F8043B46
:102C900040F8043B103AEDD20C3205D351F8043B16
:102CA00040F8043B043AF9D2043208D0D2071CBFE2
:102CB00011F8013B00F8013B01D30B88038060460B
:102CC000704700BF082A13D38B078DD010F0030381
:102CD0008AD0C3F10403D21ADB071CBF11F8013BF1
:102CE00000F8013B80D331F8023B20F8023B7BE740
:102CF000043AD9D3013A11F8013B00F8013BF9D26B
:102D00000B7803704B7843708B7883706046704704
:102D100081F0004102E000BF83F0004330B54FEA8C
:102D200041044FEA430594EA050F08BF90EA020FF9
:102D30001FBF54EA000C55EA020C7FEA645C7FEA8C
:102D4000655C00F0E2804FEA5454D4EB5555B8BFAF
:102D50006D420CDD2C4480EA020281EA030382EA20
:102D6000000083EA010180EA020281EA0303362DB2
:102D700088BF30BD11F0004F4FEA01314FF4801C85
:102D80004CEA113102D0404261EB410113F0004F97
:102D90004FEA03334CEA133302D0524263EB43034E
:102DA00094EA050F00F0A780A4F10104D5F1200EEC
:102DB0000DDB02FA0EFC22FA05F2801841F1000147
:102DC00003FA0EF2801843FA05F359410EE0A5F11B
:102DD00020050EF1200E012A03FA0EFC28BF4CF04C
:102DE000020C43FA05F3C01851EBE37101F0004502
:102DF00007D54FF0000EDCF1000C7EEB00006EEB0F
:102E00000101B1F5801F1BD3B1F5001F0CD3490898
:102E10005FEA30004FEA3C0C04F101044FEA4452EF
:102E200012F5800F80F09A80BCF1004F08BF5FEA76
:102E3000500C50F1000041EB045141EA050130BD56
:102E40005FEA4C0C404141EB0101013C28BFB1F568
:102E5000801FE9D291F0000F04BF01460020B1FAB3
:102E600081F308BF2033A3F10B03B3F120020CDA86
:102E70000C3208DD02F1140CC2F10C0201FA0CF064
:102E800021FA02F10CE002F11402D8BFC2F1200CC9
:102E900001FA02F120FA0CFCDCBF41EA0C0190407F
:102EA000E41AA2BF01EB0451294330BD6FEA0404C8
:102EB0001F3C1CDA0C340EDC04F11404C4F12002B3
:102EC00020FA04F001FA02F340EA030021FA04F3C5
:102ED00045EA030130BDC4F10C04C4F1200220FA1C
:102EE00002F001FA04F340EA0300294630BD21FA5A
:102EF00004F0294630BD94F0000F83F4801306BF20
:102F000081F480110134013D4EE77FEA645C18BF13
:102F10007FEA655C29D094EA050F08BF90EA020FAA
:102F200005D054EA000C04BF1946104630BD91EAA2
:102F3000030F1EBF0021002030BD5FEA545C05D1A5
:102F40004000494128BF41F0004130BD14F58004E4
:102F50003CBF01F5801130BD01F0004545F0FE4158
:102F600041F470014FF0000030BD7FEA645C1ABF8D
:102F7000194610467FEA655C1CBF0B46024650EAC4
:102F8000013406BF52EA033591EA030F41F40021F0
:102F900030BD00BF90F0000F04BF0021704730B576
:102FA0004FF4806404F132044FF000054FF000014B
:102FB00050E700BF90F0000F04BF0021704730B50C
:102FC0004FF4806404F1320410F0004548BF4042E1
:102FD0004FF000013EE700BF42004FEAE2014FEA36
:102FE00031014FEA02701FBF12F07F4393F07F4F11
:102FF00081F06051704732F07F4208BF704793F014
:103000007F4F04BF41F40021704730B54FF4607426
:1030100001F0004521F000411CE700BF50EA010229
:1030200008BF704730B54FF000050AE050EA0102D2
:1030300008BF704730B511F0004502D5404261EB42
:1030400041014FF4806404F132045FEA915C3FF483
:10305000D8AE4FF003025FEADC0C18BF03325FEA20
:10306000DC0C18BF033202EBDC02C2F1200300FAD1
:1030700003FC20FA02F001FA03FE40EA0E0021FAF6
:1030800002F11444BDE600BF70B54FF0FF0C4CF4E4
:10309000E06C1CEA11541DBF1CEA135594EA0C0F96
:1030A00095EA0C0F00F0DEF82C4481EA030621EAD1
:1030B0004C5123EA4C5350EA013518BF52EA03350C
:1030C00041F4801143F4801338D0A0FB02CE4FF0BE
:1030D0000005E1FB02E506F00042E0FB03E54FF0EE
:1030E0000006E1FB03569CF0000F18BF4EF0010EE6
:1030F000A4F1FF04B6F5007F64F5407404D25FEAE2
:103100004E0E6D4146EB060642EAC62141EA555194
:103110004FEAC52040EA5E504FEACE2EB4F1FD0CD6
:1031200088BFBCF5E06F1ED8BEF1004F08BF5FEA54
:10313000500E50F1000041EB045170BD06F0004606
:1031400046EA010140EA020081EA0301B4EB5C04B3
:10315000C2BFD4EB0C0541EA045170BD41F48011AB
:103160004FF0000E013C00F3AB8014F1360FDEBFD0
:10317000002001F0004170BDC4F10004203C35DAAC
:103180000C341BDC04F11404C4F1200500FA05F32F
:1031900020FA04F001FA05F240EA020001F00042D0
:1031A00021F0004110EBD37021FA04F642EB060146
:1031B0005EEA430E08BF20EAD37070BDC4F10C0470
:1031C000C4F1200500FA04F320FA05F001FA04F234
:1031D00040EA020001F0004110EBD37041F1000120
:1031E0005EEA430E08BF20EAD37070BDC4F120052B
:1031F00000FA05F24EEA020E20FA04F301FA05F293
:1032000043EA020321FA04F001F0004121FA04F23A
:1032100020EA020000EBD3705EEA430E08BF20EA0A
:10322000D37070BD94F0000F0FD101F00046400044
:1032300041EB010111F4801F08BF013CF7D041EAC6
:10324000060195F0000F18BF704703F000465200CA
:1032500043EB030313F4801F08BF013DF7D043EA9B
:103260000603704794EA0C0F0CEA135518BF95EA51
:103270000C0F0CD050EA410618BF52EA4306D1D1D8
:1032800081EA030101F000414FF0000070BD50EAF7
:10329000410606BF1046194652EA430619D094EA81
:1032A0000C0F02D150EA013613D195EA0C0F05D16B
:1032B00052EA03361CBF104619460AD181EA0301BF
:1032C00001F0004141F0FE4141F470014FF0000077
:1032D00070BD41F0FE4141F4780170BD70B54FF012
:1032E000FF0C4CF4E06C1CEA11541DBF1CEA135592
:1032F00094EA0C0F95EA0C0F00F0A7F8A4EB050474
:1033000081EA030E52EA03354FEA013100F088806A
:103310004FEA03334FF0805545EA131343EA126333
:103320004FEA022245EA111545EA10654FEA0026E8
:103330000EF000419D4208BF964244F1FD0404F5A1
:10334000407402D25B084FEA3202B61A65EB0305FD
:103350005B084FEA32024FF480104FF4002CB6EBBA
:10336000020E75EB030E22BFB61A754640EA0C003A
:103370005B084FEA3202B6EB020E75EB030E22BF7A
:10338000B61A754640EA5C005B084FEA3202B6EBBB
:10339000020E75EB030E22BFB61A754640EA9C007A
:1033A0005B084FEA3202B6EB020E75EB030E22BF4A
:1033B000B61A754640EADC0055EA060E18D04FEA08
:1033C000051545EA16754FEA06164FEAC30343EAA8
:1033D00052734FEAC2025FEA1C1CC0D111F4801F75
:1033E0000BD141EA00014FF000004FF0004CB6E76E
:1033F00011F4801F04BF01430020B4F1FD0C88BF0D
:10340000BCF5E06F3FF6AFAEB5EB030C04BFB6EB17
:10341000020C5FEA500C50F1000041EB045170BD0A
:103420000EF0004E4EEA113114EB5C04C2BFD4EB37
:103430000C0541EA045170BD41F480114FF0000EBB
:10344000013C90E645EA060E8DE60CEA135594EA37
:103450000C0F08BF95EA0C0F3FF43BAF94EA0C0F3A
:103460000AD150EA01347FF434AF95EA0C0F7FF4AF
:1034700025AF104619462CE795EA0C0F06D152EA03
:1034800003353FF4FDAE1046194622E750EA4106E7
:1034900018BF52EA43067FF4C5AE50EA41047FF4F8
:1034A0000DAF52EA43057FF4EBAE12E74FEA41025B
:1034B00012F5001215D211D56FF47873B3EB625286
:1034C00012D94FEAC12343F0004343EA505311F0AD
:1034D000004F23FA02F018BF404270474FF000003F
:1034E000704750EA013005D111F0004008BF6FF07D
:1034F000004070474FF00000704700BF696E69746C
:1035000020636F6E74726F6C6C65720A0D00000040
:103510004D657373616765205175657565206F62D0
:103520006A656374206E6F7420637265617465648C
:103530002C2068616E646C65206661696C757265CB
:103540000A0D0000696E206164645F636F6E7472BF
:103550006F6C6C65724D73670A0D00006164646581
:103560006420746865206D65737361676520696E9A
:1035700020746865207175657565207769746820A9
:10358000636F6D6D616E64203A000000464F5257C4
:10359000415244004D4F56494E4720464F525741E5
:1035A000524400004241434B574152440000000046
:1035B0004D4F56494E47204241434B5741524400DC
:1035C0004C454654000000004D4F56494E47204C94
:1035D0004546540052494748540000004D4F564953
:1035E0004E472052494748540000000053544F5062
:1035F0000000000053544F5050494E470000000057
:10360000696E20636865636B5F636F6E74726F6C65
:103610006C65724D73670A0D00000000636F6D6D7D
:10362000616E64203A20000073657269616C206DE0
:103630006F6E69746F7220757020616E6420727590
:103640006E6E696E670A0D001C0B1F251E000000C0
:1036500015160F18130000002C1502402C250240EF
:103660002CD50240281502402825024028D50240CA
:10367000241502402425024024D502402015024092
:103680002025024020D5024010150240102502409E
:1036900010D502400C1502400C2502400CD502400A
:1036A000081502400825024008D5024000150240D6
:1036B0000025024000D502401811024018210240A6
:1036C00018D10240101102401021024010D10240D6
:1036D000041102400421024004D1024008100240BB
:1036E0000820024008D0024004100240042002409A
:1036F00004D0024060050000640500006805000079
:103700006C0500005254582056352E352E350000D9
:1037100000000000000000000000000000000000A9
:103720000000000000000000000000000000000099
:103730000000000000000000000000000000000089
:10374000000000000000000001000000E80300008D
:1037500000000000E806002010000000000000004B
:103760000000000000000000000000000000000059
:10377000000000002807002000800000000000007A
:103780000000000000000000000000000000000039
:10379000000000000000000000000000000C00001D
:1037A000F8370000D43700007125000051250000D3
:1037B000BC37000004000000000000000000000012
:1037C000000000002C02002034000000DC0100207A
:1037D0005000000000000000000000006004002015
:1037E00044000000600200200002000028000000E9
:1037F00000000000000000000000000000000000C9
:10380000A404002044000000E8040020000200009E
:0C381000010000000000000000000000AB
:10381C0004370000D5B3FB020000000000000000DC
:10382C00000000000000000000000000000000008C
:10383C00000000000000000000000000000000007C
:10384C00000000000000000000000000000000006C
:10385C00000000000000000000000000000000005C
:10386C00000000000000000000000000000000004C
:10387C00000000000000000000000000000000003C
:10388C00000000000000000000000000000000002C
:10389C00000000000000000000000000000000001C
:1038AC00000000000000000000000000000000000C
:0438BC000000000008
:0400000300000405F0
:00000001FF
