:1000000034A7002035030000290300001D03000071
:100010002903000011030000050300000000000098
:10002000000000000000000000000000551E00005D
:100030002903000000000000EF1E0000FF1E00006A
:100040002903000029030000290300002903000000
:100050002903000029030000F50500002903000022
:1000600029030000290300002903000029030000E0
:1000700029030000290300002903000029030000D0
:1000800029030000290300002903000029030000C0
:1000900029030000290300002903000029030000B0
:1000A00029030000290300002903000029030000A0
:1000B00029030000290300000000000000000000E8
:1000C0002903000029030000290300002903000080
:1000D0002903000029030000290300002903000070
:1000E00029030000000000000000000000000000E4
:1000F00000000000290300000000000029030000A8
:1001000000000000000000000000000000000000EF
:1001100000000000000000000000000000000000DF
:1001200000000000000000000000000000000000CF
:1001300000000000000000000000000000000000BF
:1001400000000000000000000000000000000000AF
:10015000000000000000000000000000000000009F
:10016000000000000000000000000000000000008F
:10017000000000000000000000000000000000007F
:10018000000000000000000000000000000000006F
:10019000000000000000000000000000000000005F
:1001A000000000000000000000000000000000004F
:1001B000000000000000000000000000000000003F
:1001C000000000000000000000000000000000002F
:1001D000000000000000000000000000000000001F
:1001E000000000000000000000000000000000000F
:1001F00000000000000000000000000000000000FF
:1002000008B500221146084801F058FC182101F0F9
:1002100075FC002301211A46044801F0DBFDBDE80E
:100220000840A02101F0F8BD310200008902000061
:1002300008B5124C124D134E2368042B06D8DFE884
:1002400003F0191512030F0000F068FA22682B68FA
:100250009A42FBD0304600F075F92B682360EBE73B
:1002600000F06AFAF2E700F04BFAEFE7642000F0E2
:100270001FFAEBE7642000F0F3F9E7E7AC00002099
:10028000A80000205C3200000D4A1368132B02D036
:10029000591C1160704710B40A4B0B4819680B4C7D
:1002A000013180FB0130CB17C3EB600303EB830309
:1002B0000020CB1A106023605DF8044B704700BF2C
:1002C000B0000020AC00002067666666A800002031
:1002D00008B50621282000F00DF900F0B3F900F070
:1002E00057FC00221146064801F0E8FB00F06CFCC8
:1002F000022108464FF0FF3200F0CCF8002008BD84
:10030000010200004FF0FF320221042000F0C2B8C9
:100310004FF0FF320121042000F0BCB84FF0FF3253
:100320000021042000F0B6B804214FF0FF32084647
:1003300000F0B0B808B52549254B994221D2013BC0
:100340005B1A9D08032B0A4605F101053BD9214E96
:100350006C08334606EBC404D3F800C05868C2F8F2
:1003600000C008339C42506002F10802F4D1EA0751
:1003700007D525F0010506EB850301EB85021B6817
:100380001360154A154B9A4218D2013B991A8C08F2
:100390000329134604F101040ED9600802EBC000E2
:1003A00000211960596008338342FAD1E30705D56B
:1003B00024F0010402EB84020023136000F010F823
:1003C000FFF786FFFEE7034BD9E700BF00000020E0
:1003D000A400002040340000A80000203487002042
:1003E00010B44FF0E0220849D2F8883D4FF0804029
:1003F00043F47003C2F8883D0124044B04600B6091
:100400005DF8044B704700BFB40000200090D0039B
:100410004FF47A7300BF00BF00BF00BF00BF00BF32
:1004200000BF00BF00BF00BF00BF00BF00BF00BFD4
:1004300000BF00BF00BF00BF00BF00BF00BF00BFC4
:1004400000BF00BF00BF00BF00BF00BF00BF00BFB4
:1004500000BF00BF00BF00BF00BF00BF00BF00BFA4
:1004600000BF00BF00BF00BF00BF00BF00BF00BF94
:1004700000BF00BF00BF00BF00BF00BF00BF00BF84
:1004800000BF00BF00BF00BF00BF00BF013BC1D124
:10049000704700BF154B2DE9F04114460646585CE5
:1004A000134F884600F098F8621C01D0002C17DD2D
:1004B000BD5D284600F082F84FF4FA72FFF7A8FFFE
:1004C000013AFBD1284600F087F84FF4FA72FFF7A3
:1004D0009FFF013AFBD1631CEBD0013C002CE7DC11
:1004E00017F80800BDE8F04100F068B86C32000071
:1004F00074320000F8B5124C00250E460746294616
:100500003046C4F8005500F03DF82946384600F062
:100510002DF8304600F052F801234FF0EB71042221
:10052000C4F80C65C4F81475C4F82415C4F86C55E7
:10053000C4F80025A3602360C4F80851F8BD00BFCB
:100540000020004003786BB1074A0021C2F81C3537
:10055000D2F81C31002BFBD0C2F81C1110F8013F5F
:10056000002BF3D1704700BF002000401F288ABF36
:10057000024B034B203843F820107047000A00500C
:10058000000700501F2830B40DD9084C084A203805
:100590001568012383402B4341F00101136044F8A7
:1005A000201030BC7047034C034AF1E7000A0050AA
:1005B0001408005000070050140500501F288ABF7F
:1005C000034A044A2038012383401360704700BF68
:1005D00008080050080500501F288ABF034A044A33
:1005E0002038012383401360704700BF0C0800507F
:1005F0000C0500502DE9F04100240E4DDFF840803D
:100600000D4F26462B684BB158F8243057F824205C
:10061000013348F8243002B190472E600134082C91
:1006200005F10405EED1054A136801331360BDE8F6
:10063000F08100BF00610040DC000020D8000020F5
:10064000B800002008B50021042000F041F9BDE801
:1006500008400121032000F03BB900BF000000006A
:1006600010B5044600F2EE200021400000F056F9DB
:10067000204602F04FFB0AA3D3E9002302F0B4FBAB
:1006800002460B4608A1D1E9000102F0F5F902F09B
:10069000BDFDBDE81040012100F040B9AFF300807E
:1006A000CDCCCCCCCCCCF43F000000000070974007
:1006B00010B50446C0F53B7002300021400000F048
:1006C0002DF9204602F026FB09A3D3E9002302F00E
:1006D0008BFB09A3D3E9002302F0D0F902F096FDC9
:1006E000BDE81040012100F019B900BFAFF3008050
:1006F000CDCCCCCCCCCCF43F0000000000709740B7
:1007000008B5002140F2DC5000F008F9BDE80840CF
:1007100001214FF47A7000F001B900BF08B5002143
:100720004FF4FA6000F0FAF8BDE80840012140F209
:10073000DC5000F0F3B800BF08B5002000F0DEF890
:10074000BDE80840012000F0D9B800BF000000005B
:10075000431E022B30B4C0EBC001494D53D8494C65
:1007600054F8234045F8314005EBC102464951F8A1
:1007700023105160454951F823109160444951F8C4
:100780002310D160434951F823101161424951F8B7
:1007900023105161414951F823109161404951F8AA
:1007A0002310D1613F4951F8231011623E4951F89D
:1007B000231051623D4951F8231091623C4951F890
:1007C0002310D1623B4A52F823404FEAC00CACEBF5
:1007D000000105EBC1010C63374951F82010032BD0
:1007E0002FD8DFE803F00A020E0C3449ACEB00020C
:1007F00005EBC203596330BC70473149F6E7314914
:10080000F4E73149F2E79FED127B05EBC10181ED81
:10081000007B9FED117B81ED027B9FED117B81EDD4
:10082000047B9FED117B81ED067B9FED117B81EDBC
:10083000087B9FED117B254C81ED0A7B4FEAC00CB4
:10084000C5E701F1804101F5E031CFE7AFF300806A
:1008500004C0014008C0014004C1014010C1014072
:1008600018C1014000C5014008C501400CC5014048
:1008700010C5014020C5014024C5014028C50140E4
:10088000000100200C33000000330000F4320000AF
:10089000E8320000DC320000D0320000C432000038
:1008A000B8320000AC320000A032000094320000E8
:1008B000883200007C3200001833000068250240B6
:1008C0006415024000C001406CD502402CC50140B7
:1008D00010B504460846FFF73BFF074BC0EBC000CE
:1008E00003EBC0030520D9690860596B0C605B6994
:1008F00001221A6010BD00BF00010020C0EBC00043
:10090000054BC00001211A58034411609B6803B9CC
:10091000FEE700221A6070470001002010B40E4B61
:100920000E4AC1EBC10103EBC1010424CB691C6079
:1009300041F28834201A108088690460486A026095
:100940008A6A01231360CA6A002010604A68136033
:100950005DF8044B704700BF00010020E00100205B
:10096000F8B5544D2B7A012B7CD0002B40F09B80A6
:10097000514CE66A238AE268A5F85430216BA368DB
:10098000EA6530462B6400F039F908B1C5F880609B
:10099000D4E90571384600F031F9002878D0D4E95F
:1009A000076130466F6700F029F9002865D0D4E967
:1009B00009713846AE6700F021F9002856D0666B01
:1009C000EF673EB1D6E902233168304600F0A6F960
:1009D000C5F88460A66B3EB1D6E902233168304683
:1009E00000F09CF9C5F88860E66B3EB1D6E90223B9
:1009F0003168304600F092F9C5F88C60266C3EB143
:100A0000D6E902233168304600F088F9C5F89060D5
:100A1000666C3EB1D6E902233168304600F07EF9BB
:100A2000C5F89460A66C3EB1D6E902233168304621
:100A300000F074F9C5F89860E66C3EB1D6E902237F
:100A40003168304600F06AF9C5F89C60246D3CB10D
:100A5000D4E902232168204600F060F9C5F8A040DF
:100A600001232B7201F0B0FA0020F8BD666BD5F8B7
:100A70008070EF67002EA5D1ACE7D4E90971D5F8F5
:100A80008060AE67384600F0B9F8002897D1EDE7EE
:100A9000D4E90761D5F880706F67304600F0AEF892
:100AA000002884D1E9E74FF0FF3001F089FA4FF0D8
:100AB000FF30F8BD000000206C33000070B5284CFA
:100AC000237A012B47D100F0D7FF00283CD0254ADC
:100AD000FF2382F8223092F82230D26863F0FF03BD
:100AE000DB432DD0B3FA83F3C3F12003C2F3022218
:100AF000934227D9FE2202FA03F31B4E194A1B49DF
:100B00007068DBB2D37701F009FA0546E0B901F06D
:100B100043FA206101F028FA154800F0BFFA00F00E
:100B2000D9FB3368DB074CBF0223032383F314880C
:100B3000BFF36F8F0223237201F04AFA284670BD7B
:100B4000C2F30222531CD5E74FF0FF3001F038FA10
:100B50004FF0FF35F2E76FF0060001F031FAF7E7EA
:100B60000000002000ED00E06C330000FF1E0000DC
:100B70001C000020704700BF38B504460D4601F048
:100B800029FA29462046BDE8384001F00BBA00BFDB
:100B900008B5FFF7EFFF01F015FAEFF305834BB946
:100BA000EFF3108333B9EFF311831BB9DFF814C0EF
:100BB00000DF08BD6FF0050001F002FA6FF00500DC
:100BC00008BD00BF6109000008B501F0FFF9EFF3AF
:100BD00005834BB9EFF3108333B9EFF311831BB9DE
:100BE000DFF814C000DF08BD6FF0050001F0E8F980
:100BF0006FF0050008BD00BFBD0A000070B50346D8
:100C00000C4620B140EA010212F0070506D0184652
:100C10000022214601F0C8F9002070BD1729F6D93D
:100C2000A1F108042218102619608260466005515F
:100C3000846801226660C56001F0B6F9012070BDCC
:100C400070B5C0B3B9B3032A35D801F10F05846874
:100C500025F0070500F1080E03E02368A64653B30C
:100C60001C46DEF80460A4EB0E0326F0030CA3EB95
:100C70000C039D42F1D8446803682C44034444604B
:100C800053F8046C083BB44288BF5C60DEF8043063
:100C9000BBB123F003030EEB0304DEF800604EF853
:100CA000036015436560CEF800400834234601F028
:100CB0007DF9204670BD0023002401F077F920461D
:100CC00070BD1543CEF804500EF10804EEE700BFE6
:100CD00010B5D8B1D1B1A1F1080C00F1080300247E
:100CE00003E01A681C468AB113466345F9D15A6875
:100CF00022F0030C4268A2EB0C0242605CB11B685C
:100D00002360012201F054F9012010BD002201F0FE
:100D10004FF9002010BD5C60F3E700BFF8B58646D0
:100D200030B30C4629B315462AB31E462BB302FB3B
:100D300001F74FF0000CCEF80010C0E90223CEF806
:100D40001430C0F804C003EB070CC0F810C001F069
:100D500031F9B4F1010C08D031460846BCF1010C60
:100D600029440160F9D17F1B3E44002333600120F8
:100D7000F8BD0846F8BD1046F8BD1846F8BD00BFDE
:100D800070B50446D8B100F1140353E8001F11B93F
:100D9000BFF32F8F04E00A6843E8002000B1F4E7B6
:100DA0000D4639B1231D53E8002F501C43E80006BF
:100DB00006B1F8E7204601F0FFF8284670BD01466D
:100DC00001F0FAF82546F8E7F8B50C46034608B3F3
:100DD000C2688A421ED802698A421BD900F11402F5
:100DE00015680D60BFF35F8F52E8005F0E68AE427A
:100DF000F6D142E8001707B1F2E7043353E8002FB9
:100E0000541E43E8004505B1F8E7002201F0D6F88A
:100E10000020F8BD18466FF00302214601F0CEF81D
:100E20006FF00300F8BD00BF38B51E4C01F0B0F8FC
:100E3000E3680133E36000F095F9002000F052FA16
:100E4000236D03B19847236C5BB1A269E16B9142BA
:100E500008D0E263D169002918BF0B46013BD3617A
:100E60001BB138BDD369002BF8D1237A022BF8D1FE
:100E7000656A002DF5D0E36B95F9202093F92030B9
:100E80009A42EED1284600F041F9E06B00F048F9B3
:100E9000E06B01F0B1F8284600F01CFA236CE56322
:100EA000EB6138BD0000002070B5284E06F15604F5
:100EB00006F15A05B6F85420D4E85F3F13B9BFF3E2
:100EC0002F8F04E0591EC4E8501F00B1F4E79BB215
:100ED000002B36D0D5E85F3F591C8A4200D800214C
:100EE000C5E8501F00B1F5E7F26D9BB252F8230040
:100EF00038B30378F13B082BDCD801A252F823F079
:100F00003D0F0000B50E0000370F0000B50E0000C9
:100F1000B50E0000310F00002B0F0000B50E0000D1
:100F2000250F0000336F9847C4E7F36E9847C1E779
:100F3000B36E9847BEE7736E9847BBE7336E98472A
:100F4000B8E7BDE87040002000F0CCB900000020F8
:100F500070B41A4A0146B2F8543002F15604D4E88B
:100F60005F0F834202D8BFF32F8F04E0451CC4E813
:100F7000565F06B1F3E780B2834203D870BC02200B
:100F8000FFF7FABD02F15804D4E85F0F451CAB42ED
:100F900000D80025C4E8565F06B1F5E783B2D46DEA
:100FA00044F82310537A1BB10123937270BC70472D
:100FB000034B4FF080525A6070BC70470000002015
:100FC00000ED00E0F8B5264E756907460C46284648
:100FD00001F00EF8631C6F7011D0F36A00202BB97A
:100FE00038E019691846A41A21B30B46DA69A242FF
:100FF000F7D9C5E90430EC6108B3056120E0336B33
:101000001BB31A461B69002BFBD14FF0FF31C5E91A
:101010000432E9611561706A836873620BB1114A29
:10102000DA6000220223C2604370B06100F0E6FF84
:101030000120F8BDC5E90413EC611D61EBE7F56221
:10104000DA695D61121BDA61E5E7EC612B616B61C6
:101050003563E0E7EC612B616B61F562DBE700BFB4
:10106000000000201C000020836891F920C023B9F3
:1010700010E09A6818464AB1134693F92020624559
:10108000F7DAC1E902308160D9607047C1E9022313
:1010900099607047C1E902308160704703468068FB
:1010A00082689A6002B1D3600023C360704700BFBA
:1010B000034610B924E0DB68EBB11A78F12AFAD0C4
:1010C000C26832B18168916009B1C268CA60002209
:1010D000C2609A6890F920C022B912E09168134664
:1010E00051B10A4692F920106145F7DAC0E90223AE
:1010F0009860D06070477047C0E9021290607047F6
:101100007047C0E902239860704700BFC36833B1DD
:1011100082689A600AB1C368D3600023C3607047D5
:1011200001230F4943704B6A90F920C093B11C31E1
:1011300003E09A6819464AB1134693F920206245A4
:10114000F7DAC0E902318860D8607047C0E902234D
:101150009860704701F11C02C0E902324862704792
:10116000000000202DE9F041544DEC6A82B0002CC3
:1011700046D0E669013EE661002E41D105F11C082A
:1011800001276378632B7FD04FD8432B00F08780F3
:1011900039D8132B69D0332B02D1204600F034FF0D
:1011A00094F82230A26B13F0100F14BF2023602399
:1011B0002046D15800F01EFFE3682BB1A2689A6068
:1011C0000AB1E368D360E66067706B6A94F9200047
:1011D00041462BB96EE09A681946002A41D0134661
:1011E00093F920208242F6DAC4E902318C60DC6097
:1011F000246924B1E369002BC3D000236361EC624E
:1012000002B0BDE8F081532BCAD12378F12B2046E0
:1012100003D1C0680378F12BFBD02146019001F087
:101220001BFB019800F004FFBAE7832B21D0932B1E
:101230000AD12378F12B204603D1C0680378F12B23
:10124000FBD000F007FFABE7732BA9D12378F12B7C
:10125000204603D1C0680378F12BFBD000F0F0FEEC
:101260009EE7C4E902239C60C2E7204600F0D0FE5E
:1012700096E72378F12B204603D1C0680378F12B41
:10128000FBD000F0F3FE8BE72378F12B204603D14F
:10129000C0680378F12BFBD000F0D0FE80E7237804
:1012A000F12B204603D1C0680378F12BFBD000F06E
:1012B000BDFE75E7C4E902386C6299E700000020C2
:1012C00090F82230806B13F0100F14BF202360239E
:1012D00018447047024A02214170906100F08EBEAE
:1012E0000000002070B53F4D2B7A6A6900283CD081
:1012F000022B90F920C004464FF0010313D0637015
:101300006B6A002B5AD0384904E09A681946002AC3
:1013100050D0134693F920206245F6DAC4E9023131
:101320008C60DC6070BD92F920008445E7DD53706D
:101330006B6A05F11C062BB949E099681E46002925
:1013400041D00B4693F920108142F6DCC2E9023607
:10135000B260DA60104600F04FFE02236370AC61A9
:101360002046BDE8704000F049BE022B6C6AD9D11E
:10137000002CD7D092F9200094F920308342D1DD9F
:10138000E36843B1A168996009B1E368CB600023C9
:10139000E36092F92000012353706B6AEBB1124EA7
:1013A00003E099681E4671B10B4693F92010814203
:1013B000F7DCCBE7C4E902239C6070BD0A4AC4E9AC
:1013C00002326C6270BDC2E902139A60C2E705F195
:1013D0001C01C2E902316A62BCE70349C2E9023179
:1013E0006A62B7E7000000201C0000202DE9F04FE2
:1013F00085B0002800F049818A4615460746002A34
:1014000000F0BA8013680093D2E90134D5F818903F
:10141000D2E90426002C00F0948014F0030840F078
:10142000DF80E968432940F2DB80002A00F0DE809B
:101430005107904640F0B680002E00F0B380B9F11D
:10144000000F40F0B9804FF0180916F0070C40F07B
:10145000A9809C49A6F14800884200F2A380002C94
:1014600000F00881002A00F0F280DFF86CB29649A3
:1014700015466246E370B044009B6360A8F14003E8
:10148000A3630023A2704FFA89F90A68E76319463B
:1014900069F3070169F30F2140F2F11021842080E4
:1014A0008A49E362FD205207C4E90C56C4E90233BD
:1014B000C4E90433C4E90633C4E90933608429600C
:1014C0001AD5B608B6F1110C16D0122E11D0133E53
:1014D00072080132291D4FF0CC3001339A42086066
:1014E000486001F10801F8D8BCEB420F04D005EBCD
:1014F000C2054FF0CC336B60A36B7549C3F820A0D5
:1015000000221A605A609A60DA601A615A619A6120
:10151000DA619A62DA621A635A636E4A9A634FF02A
:1015200080725F62DA63CBF860106268E16B20461C
:1015300000F056FD2046FFF7D5FE204605B0BDE879
:10154000F08FD5F80C80B8F1000F49D1002A7FF454
:101550006FAFB9F1000F00F08F8009F1FF32372A29
:101560002FD8002E40F0A080B046002C00F08B80D9
:10157000DFF864B112224BE0009290464FF0180958
:1015800016461346DFF850B10193DBF88800F0B13E
:10159000FFF7F6FB019B0446002C52D09DB34A494D
:1015A000012267E76FF00A01002000F015FD00241A
:1015B000204605B0BDE8F08F09F1FF3137297FF6ED
:1015C00044AF6FF00B01002000F006FDEFE7DBF801
:1015D000800001224421FFF733FB019B0446DBE737
:1015E0006FF00801002000F0F7FCE0E7B9F1000F10
:1015F000B3D1002E7FF427AFC846DFF8DCB012224B
:101600004FF0180904E0002E52D113224FF00108C8
:101610002D49DBF884004E6D02920191002839D0EB
:101620000393FFF7ADFB01A90EC9054600BBB8F156
:10163000000F06D0DBF8880000283CD02146FFF7D9
:10164000C3FB6FF00401002000F0C6FCAFE7DFF839
:1016500088B09046DBF87400019300223146FFF712
:10166000EFFA019B0546002DE1D0174948F0020230
:10167000A846FFE6154685E7002E7FF4E4AE354622
:101680004FF018097EE735467CE76FF0030100F064
:10169000A3FC8CE702463146DBF874000193FFF7A8
:1016A000CFFA019B0546DEE74FF000084246CCE644
:1016B0004FF00108CEE7DBF880002146FFF708FB7A
:1016C000BFE700BFB7FFFF7F6C330000A52E5AE2D3
:1016D00049180000551B00000000002010B504460A
:1016E000002842D00278F12A3FD14A1E372A3CD83E
:1016F0004278042A45D090F920204BB29A4201D179
:10170000002010BD4FF0000263F3070263F30F22C5
:10171000028400F069FC234601E0DB68E3B11A783B
:10172000F12AFAD0E26832B1A168916009B1E268A9
:10173000CA600022E2609A6894F9200022B91CE095
:101740009168134669B10A4692F920108142F7DA8E
:10175000C4E902239C60D4600020FFF7C3FD002091
:10176000CFE7C4E902129460F6E720466FF0030168
:1017700000F032FC6FF0030010BDC4E902239C604E
:10178000EAE76FF0020100F027FC6FF0020010BDE5
:1017900070B504460E46154600F02CFC94F8223035
:1017A000A26B13F0100F14BF20236023D650E26900
:1017B0002369511C26D033B1D9691144D961D4E9C8
:1017C00004325A6123696269002A2DD00021136115
:1017D00061610023E36115BB01231A4963704B6A01
:1017E00094F920003BB31C3103E09A681946F2B12A
:1017F000134693F920208242F7DAC4E902318C6063
:10180000DC6070BD13B162695A6123696269002AA4
:10181000DCD10C4A13630023E361002DDCD02046A9
:10182000BDE87040FFF75EBD064AD362D1E7C4E968
:1018300002239C6070BD01F11C03C4E902534C6299
:1018400070BD00BF000000204378332B00D07047EC
:1018500070B590F82320436A9107044616D412F01D
:10186000010F00F1280227D052E8005F05EA0301CA
:10187000994203D0BFF32F8F002505E025EA03012D
:1018800042E8001000B1EFE72DB970BDD207856ABC
:101890000FD42B42F9D0294620460022FFF778FFCB
:1018A00094F82310606A23462A46BDE8704000F091
:1018B000ADBBAB43E8D070BD52E8005F1D4203D121
:1018C000BFF32F8F002505E025EA030142E8001051
:1018D00000B1F1E7002DD8D0DDE700BF044B1A7A44
:1018E000022A03D15B6A0BB1FFF76CBB0020704783
:1018F00000000020704700BF10B50446FFF7FAFF54
:10190000A378002222809A0709D513F0100F216BCB
:101910000F4B10D0D3F88400FFF756FAA378DB07FB
:1019200008D50B4BD3F8880050B12146BDE81040D4
:10193000FFF74ABA10BD586FFFF7CAF9A378EEE770
:101940002146D3F88000BDE81040FFF7C1B900BFC1
:101950000000002070B5464C237A022B6BD1636ADD
:10196000002B68D06569E86A00F044FFAE69002E7C
:101970003AD00021304600F03DFB96F82230B26BA1
:1019800013F0100F14BF202360230021D150F269FF
:101990003369511C58D033B1D9691144D961D6E9A2
:1019A00004325A6133697269002A5AD013610023E4
:1019B000736101230022F2617370636A96F920005B
:1019C000002B50D02B4904E09A681946002A44D0D5
:1019D000134693F920208242F6DAC6E902318E607E
:1019E000DE60A86900F002FB6B78232B02D1AB68A4
:1019F00000229A61606A836863620BB11D4ADA60F3
:101A000002230026C6604370A06100F0F7FAEFF3EE
:101A100009826661EB78AA63DB070DD504236B703E
:101A2000EE60636BAB6003B1DD6065632846BDE8C3
:101A3000704000F0E7BA70BD2846FFF75DFF28460A
:101A4000BDE8704000F0DEBA13B172695A613369C3
:101A50007269002AAAD12363ABE7C6E902239E601C
:101A6000BFE7E362A5E7034AC6E902326662B8E768
:101A7000000000201C00002038B50D4C0D48A26D60
:101A80000D4D0021FFF7B2FC636EA8626BB1984761
:101A900008B1002038BDE26DE96C206EFFF7A6FCAE
:101AA000A864003818BF012038BD012038BD00BF30
:101AB0006C330000A11F00000000002070B5064636
:101AC0000D46144600F08AFAEFF3058363B9EFF38D
:101AD00010834BB9EFF3118333B9DFF81CC03046E4
:101AE0002946224600DF70BD6FF00501002000F09E
:101AF00073FA002070BD00BFED13000038B5044636
:101B00000D4600F06FFAEFF305835BB9EFF3108336
:101B100043B9EFF311832BB9DFF818C020462946EB
:101B200000DF38BD20466FF0050100F055FA6FF078
:101B3000050038BDDD16000008B500F061FADFF8D9
:101B400010C000DF4FF0FF31002000F045FAFEE743
:101B50005519000008B58847FFF7EEFF2DE9F04161
:101B600020B301290F4621D8164605463BB39C6891
:101B7000D3F8008074B314F003022ED1DB681F2B5E
:101B80002BD91346A3700023C4E90183C4E90333AE
:101B9000C4E905354FF4F9732046E770E661414624
:101BA000238000F03DFA2046BDE8F0816FF003018C
:101BB000002000F02FFA00242046BDE8F08198466E
:101BC000104BD3F88C0070B1FFF7DAF8044694B1EB
:101BD0000123D7E7DB68002BF2D06FF0080100206B
:101BE00000F018FAE7E7D3F8800001222021FFF780
:101BF00027F80446EBE76FF00401204600F00AFAEC
:101C0000D9E700BF00000020F8B5074600284BD0F8
:101C10000378F22B48D1002946D04378022B2AD0F2
:101C2000294E336D002B47D0022343704161736C02
:101C3000002533B919E0DC681D46891A002C2CD028
:101C400023461A698A42F6D9C7E9025339611A69EB
:101C50009F60521A1A6165B1EF60384600F0E4F9EE
:101C60000020F8BD8268A2B9174E39610023BB601D
:101C7000FB607764F1E7C3684161002BF2D01A6919
:101C8000006902441A61D7E902239A60D7E9022366
:101C90003AB10D4ED360736CCAE7C7E902343961BB
:101CA000DAE7094E7364C3E738466FF0030100F0CA
:101CB000B1F96FF00300F8BD6FF0020100F0AAF96E
:101CC0006FF00200F8BD00BF000000202DE9F843CE
:101CD0002D4D6C6CFCB12369D5F81490013B236148
:101CE0000126B3B9E76817B1A368BB60E768E86C81
:101CF0006F6400231A4604F1180100F0BDFC60B9BE
:101D0000E378012B1BD066706C6C14B12369002B37
:101D1000E8D0C5F81490BDE8F883AB69D5F8148015
:101D20006B6121460320FEF727FF6B69002BE7D18B
:101D3000E378C84508BF4FF00009012BE3D16B6C75
:101D400062694FF0000C2BB919E0D8689C46521A12
:101D500088B1034619699142F7D9C4E902C32261E7
:101D600019699C60891A1961BCF1000F0AD0CCF87E
:101D70000C406C6CC9E7C4E90302A360F7E7226179
:101D8000A360E3606C64C1E70000002008B500F0C8
:101D9000B1FB18B9034B044A1A6508BD4FF0FF3078
:101DA00008BD00BF00000020CD1C000000B50446A7
:101DB00083B04FF0FF3300226946204600F0AAFCB2
:101DC0000028F6D1DDE9000100F026F9DDE9003058
:101DD0009847EEE7F8B507460E4615461C4600F054
:101DE0001DF9EFF305836BB9EFF3108353B9EFF3EC
:101DF00011833BB9DFF81CC0384631462A462346DA
:101E000000DFF8BD6FF00501002000F003F90020AD
:101E1000F8BD00BF5D1B000038B504460D4600F05C
:101E200001F9EFF305835BB9EFF3108343B9EFF3E7
:101E300011832BB9DFF818C02046294600DF38BDD2
:101E400020466FF0050100F0E5F86FF0050038BDA1
:101E5000091C00001EF0040F0CBFEFF30880EFF325
:101E60000980816911F8021C002932D101B590E87E
:101E70000F10E047BDE80050CCF80000244B93E879
:101E80000600914208BF70471A6041B91EF0100F5A
:101E900010D1204B186820F0010018600AE02CE9EE
:101EA000F00F1EF0100F08BF2CED108A81F822E011
:101EB000C1F838C0906B92F8221061F0FF0E1EF04E
:101EC000100F08BFB0EC108AB0E8F00F80F309885B
:101ED0007047114A13689942FAD801B552F821C0E7
:101EE0000FC8E047BDE80050CCF80000704701B5CE
:101EF000FEF7DAFFBDE80140EFF3098CBEE701B55C
:101F0000FEF792FFBDE80140EFF3098CB6E7000051
:101F10001400002034EF00E0DC330000D0B10F4BA0
:101F20001B68B3FBF0F3013BB3F1807F12D20C4886
:101F300010B44FF0E0210B4C4FF0FF0C80F823C0A1
:101F40000022062008614B618A61227010465DF80C
:101F5000044B70474FF0FF30704700BFB4000020C3
:101F600000ED00E030870020074B1A782AB1074ABD
:101F700000204FF08061187051604FF0E02213692B
:101F800043F00103136170473087002000ED00E04B
:101F90004FF0E0231B6970474FF0FF30704700BFE0
:101FA000FEE700BFFEE700BF704700BF704700BFFD
:101FB000704700BF704700BF704700BF704700BF49
:101FC000704700BF704700BF704700BF704700BF39
:101FD000704700BF704700BF704700BF704700BF29
:101FE000704700BF704700BF704700BF704700BF19
:101FF000704700BF704700BF704700BF704700BF09
:10200000704700BF704700BF704700BF704700BFF8
:10201000704700BF704700BF704700BF704700BFE8
:10202000704700BF704700BF704700BF704700BFD8
:10203000704700BF704700BF704700BF704700BFC8
:10204000704700BF704700BF704700BF704700BFB8
:10205000704700BF704700BF704700BF704700BFA8
:10206000704700BF704700BF704700BF704700BF98
:10207000704700BF704700BF2DE9F84304460028B1
:1020800000F0868099460378FA2B40F081808846DC
:1020900000297DD08568174615B16B78832B52D007
:1020A00004F10C00FEF76CFE0646C8B14146626AB8
:1020B0000C3000F043FCF92300213370B170F7704D
:1020C000236B23B95BE05D68194605B32B46DA78CC
:1020D000BA42F8D3C6E901319E60D9B926631AE045
:1020E000B9F1000F27D0204641464A46FFF7B0FF1E
:1020F00049469320FFF7F2FB002845D0284B2046A5
:102100005969FEF7B1FF6FF00100BDE8F883C6E939
:102110000153E6624E6004F1280353E8002F511C7E
:1021200043E8001000B1F8E741462046FFF796FF6C
:102130000020BDE8F88320464146FFF791FF6FF08D
:102140000200BDE8F883FFF789FF2046FEF7A6FFEF
:10215000012205460021FFF71BFB2846FFF7B0F8D8
:102160004668626A05464146304600F0E7FBAB68C8
:1021700003B11F7031462046FFF77AFFD8E773603E
:10218000B360E6622663C6E72046FFF763FFBAE75F
:1021900020466FF00301FFF755FF6FF00300B4E72F
:1021A000000000202DE9F04186780446002E46D03C
:1021B0004368C668002B6AD082689A60A368002BC7
:1021C0006AD062685A60002506F10C072570214626
:1021D0003846FEF7F9FDB368002B56D03846FEF7B7
:1021E000CFFD0446002850D03046FEF757FF2A4660
:1021F00007462946FFF7CCFA3846FFF761F8D0F8D2
:102200000480726A0746414604F10C0000F096FB18
:10221000F923A5702370387AE070336B2BB982E014
:102220005A681D46002A3AD01346DA788242F7D31C
:10223000C4E901359C60002D34D1346333E0D0E92A
:102240000115AB68284613B15B78832B41D0FFF7AB
:1022500005FF2B6B002B35D0E078002104E05A6895
:102260001946002A5BD01346DA788242F7D3C4E9D4
:1022700001319C6000292AD04C60283555E8003F88
:102280005A1C45E8002101B1F8E7BDE8F0818368F8
:10229000F362A368002B94D16368336393E7C4E9C6
:1022A0000123F4626C6006F1280353E8002F511CEF
:1022B00043E8001000B1F8E741463046BDE8F04180
:1022C000FFF7CCBE6360A360EC622C63D5E72C63A0
:1022D000D3E7FFF7C3FE2846FEF7E0FE324631465D
:1022E0000746FFF755FA3846FEF7EAFF47686A6A7D
:1022F000064604F10C01384600F020FBB3680BB130
:10230000E2781A7039462846FFF7B2FE00232370A0
:10231000214605F10C00BDE8F041FEF755BDC4E9CA
:102320000123EC62A8E76360A360F4623463BAE758
:102330002DE9F04F804683B0002800F0D18093460D
:102340000278FA2A40F0CC808946002900F0C88043
:1023500000F1280A544654E8002F12B9BFF32F8F1A
:1023600004E0511E44E8001000B1F4E7002A00F038
:102370008680D8F82C40002C00F08180012702E0F4
:10238000A468002C7BD0A61CD6E84F5FC6E8427F2D
:1023900002B1F9E7EDB2002DF2D16368002B64D0F1
:1023A000A2689A60A368002B65D062685A60D8F86A
:1023B000242004F10C01484600F0C0FABBF1000FE4
:1023C00002D0E3788BF8003049464046002508F1FA
:1023D0000C06FFF74DFE257021463046FEF7F4FC53
:1023E000D8F80830002B3CD03046FEF7C9FC044634
:1023F000002836D04046FEF751FE01220646294607
:10240000FFF7C6F93046FEF75BFF4668D8F8242090
:102410000746314604F10C0000F090FAF923A5704C
:102420002370387AE070D8F830302BB949E05A6818
:102430001D46002A4FD01346DA788242F7D3C4E90A
:1024400001359C60002D43D06C60504650E8003F41
:102450005A1C40E8002101B1F8E731464046FFF739
:10246000FDFD002003B0BDE8F08FA368C8F82C3054
:10247000A368002B99D16368C8F8303097E79BB107
:102480001A46404649460193FFF7EEFD019B832023
:102490001946FFF723FA80B1154B40465969FEF7FC
:1024A000E3FD6FF00100DDE740464946FFF7E2FD3E
:1024B0006FF0020003B0BDE8F08F4046FFF7D6FD95
:1024C000EFE76360A360C8F82C40C8F83040BCE771
:1024D000C8F83040B9E7C4E90123C8F82C40B3E795
:1024E00040466FF00301FFF7ADFD6FF00300B9E761
:1024F000000000205D4B2DE9F047D3E91A56002E6D
:1025000042D0B6FA86F3032B3EDD06EB8602970037
:10251000002D47D0AC68D5F80090D5E90432002CE6
:102520004ED0A00740F08780E968332940F28380CD
:10253000002B4FD013F0030A40F08580974200F241
:102540008280DFF830811D46FA222B46227000255A
:1025500008223146626284F802A01422C4F8049072
:10256000A560A562E562256304F10C00FEF7D6FBC9
:102570003F4BC8F8703020466168FFF765FDC8F82A
:102580004C402846BDE8F0876FF003010020FFF7BC
:1025900059FDDFF8E0800024C8F84C404FF0FF30D0
:1025A000BDE8F087A946DFF8CC80D8F8A00018B3C2
:1025B000FEF7E6FB0446C4B335B34FF0010AC3E7A8
:1025C000E968C1BB002B46D099073CD197423AD865
:1025D0001D46E8E7BABBDFF89C803946D8F87C0096
:1025E000FEF72EFB054600B34FF0020A3A460021E3
:1025F000284600F051F9A7E7D8F8800001223421DD
:10260000FEF71EFB0446D6E72A46D8F87C0039467A
:10261000FEF716FB4FF0030A05460028E6D1D8F86E
:10262000A000E0B12146FEF7CFFB6FF004010020CF
:10263000FFF708FDAFE76FF008010020FFF702FD8C
:10264000DFF83080A7E76FF009010020FFF7FAFC00
:10265000DFF820809FE7002AF5D11546A3E7D8F8D8
:1026600080002146FEF734FBDFE700BF6C3300003B
:10267000A5210000000000202DE9F04105460F468D
:1026800090461E46FFF7E2FCEFF3058313B9EFF324
:1026900010830BB36DB32B78FA2B2AD14FB346BB03
:1026A00005F10C00FEF76CFB044650B36A6A39462C
:1026B0000C3000F043F9F92320462370C4E901757A
:1026C00084F80380A670FEF743FC28463946FFF7DE
:1026D000C3FC3046BDE8F081EFF31183002BD9D164
:1026E000DFF82CC0284639464246334600DFBDE8B5
:1026F000F08128466FF00301FFF7A4FC6FF00300A0
:10270000E8E728463946FFF7ABFC6FF00200E1E747
:10271000792000002DE9F8430746884691461C467B
:10272000FFF7A0FCEFF305831BB9EFF31083002B39
:1027300040D0002F53D03B78FA2B50D1B8F1000F86
:102740004DD0002C4BD107F1280353E8002F12B9CC
:10275000BFF32F8F04E0511E43E8001000B1F4E7EF
:10276000002A34D0FC6A002C31D0012601E0A46894
:102770006CB3A51CD5E84F3FC5E8426F02B1F9E73D
:10278000DBB2002BF3D17A6A04F10C01404600F071
:10279000D5F8B9F1000F02D0E37889F8003020466F
:1027A000E760FEF7D5FB38464146FFF761FC0020A5
:1027B000BDE8F883EFF31183002BBAD1DFF830C006
:1027C000384641464A46234600DFBDE8F88338468E
:1027D0004146FFF74FFC6FF00200BDE8F883384632
:1027E0006FF00301FFF72EFC6FF00300E0E700BF7E
:1027F0003123000070B32DE9F041054600274FF06A
:1028000001082C466D69E3781B0703D4002DF8D12D
:10281000BDE8F081204600212776FFF70DFCA36874
:102820002046002BF2D0FEF739FC00220646114666
:10283000FEF7AEFFC4E90367F36A63610121204636
:1028400003B11C61F46284F81880FFF7F3FB002DDC
:10285000D7D1DDE7704700BFC3789B0717D5C068A5
:1028600090F921C0C36ADA78920709D59A688A423A
:1028700008BF8A6822B192F920209445B8BF9446D7
:102880005B69002BEFD190F92030634500D1704790
:1028900080F820C0FEF70CBC830730B547D0541E2B
:1028A000002A3ED0CAB2034601E0013C39D303F806
:1028B000012B9D07F9D1032C2CD9CDB205EB0525B1
:1028C0000F2C05EB054535D9A4F1100222F00F0CB1
:1028D00003F1100EE6444FEA121C1A4615605560CB
:1028E0009560D56010327245F8D10CF1010214F0F8
:1028F0000C0F03EB021204F00F0C13D0ACF1040325
:1029000023F003030433134442F8045B9A42FBD1DF
:102910000CF003042CB1C9B21C4403F8011B9C4207
:10292000FBD130BD64461346002CF4D1F9E70346D1
:102930001446C0E71A46A446E0E700BF844641EAD1
:10294000000313F003036DD1403A41D351F8043B27
:1029500040F8043B51F8043B40F8043B51F8043B79
:1029600040F8043B51F8043B40F8043B51F8043B69
:1029700040F8043B51F8043B40F8043B51F8043B59
:1029800040F8043B51F8043B40F8043B51F8043B49
:1029900040F8043B51F8043B40F8043B51F8043B39
:1029A00040F8043B51F8043B40F8043B51F8043B29
:1029B00040F8043B51F8043B40F8043B51F8043B19
:1029C00040F8043B51F8043B40F8043B403ABDD288
:1029D000303211D351F8043B40F8043B51F8043B2A
:1029E00040F8043B51F8043B40F8043B51F8043BE9
:1029F00040F8043B103AEDD20C3205D351F8043BB9
:102A000040F8043B043AF9D2043208D0D2071CBF84
:102A100011F8013B00F8013B01D30B8803806046AD
:102A2000704700BF082A13D38B078DD010F0030323
:102A30008AD0C3F10403D21ADB071CBF11F8013B93
:102A400000F8013B80D331F8023B20F8023B7BE7E2
:102A5000043AD9D3013A11F8013B00F8013BF9D20D
:102A60000B7803704B7843708B78837060467047A7
:102A700081F0004102E000BF83F0004330B54FEA2F
:102A800041044FEA430594EA050F08BF90EA020F9C
:102A90001FBF54EA000C55EA020C7FEA645C7FEA2F
:102AA000655C00F0E2804FEA5454D4EB5555B8BF52
:102AB0006D420CDD2C4480EA020281EA030382EAC3
:102AC000000083EA010180EA020281EA0303362D55
:102AD00088BF30BD11F0004F4FEA01314FF4801C28
:102AE0004CEA113102D0404261EB410113F0004F3A
:102AF0004FEA03334CEA133302D0524263EB4303F1
:102B000094EA050F00F0A780A4F10104D5F1200E8E
:102B10000DDB02FA0EFC22FA05F2801841F10001E9
:102B200003FA0EF2801843FA05F359410EE0A5F1BD
:102B300020050EF1200E012A03FA0EFC28BF4CF0EE
:102B4000020C43FA05F3C01851EBE37101F00045A4
:102B500007D54FF0000EDCF1000C7EEB00006EEBB1
:102B60000101B1F5801F1BD3B1F5001F0CD349083B
:102B70005FEA30004FEA3C0C04F101044FEA445292
:102B800012F5800F80F09A80BCF1004F08BF5FEA19
:102B9000500C50F1000041EB045141EA050130BDF9
:102BA0005FEA4C0C404141EB0101013C28BFB1F50B
:102BB000801FE9D291F0000F04BF01460020B1FA56
:102BC00081F308BF2033A3F10B03B3F120020CDA29
:102BD0000C3208DD02F1140CC2F10C0201FA0CF007
:102BE00021FA02F10CE002F11402D8BFC2F1200C6C
:102BF00001FA02F120FA0CFCDCBF41EA0C01904022
:102C0000E41AA2BF01EB0451294330BD6FEA04046A
:102C10001F3C1CDA0C340EDC04F11404C4F1200255
:102C200020FA04F001FA02F340EA030021FA04F367
:102C300045EA030130BDC4F10C04C4F1200220FABE
:102C400002F001FA04F340EA0300294630BD21FAFC
:102C500004F0294630BD94F0000F83F4801306BFC2
:102C600081F480110134013D4EE77FEA645C18BFB6
:102C70007FEA655C29D094EA050F08BF90EA020F4D
:102C800005D054EA000C04BF1946104630BD91EA45
:102C9000030F1EBF0021002030BD5FEA545C05D148
:102CA0004000494128BF41F0004130BD14F5800487
:102CB0003CBF01F5801130BD01F0004545F0FE41FB
:102CC00041F470014FF0000030BD7FEA645C1ABF30
:102CD000194610467FEA655C1CBF0B46024650EA67
:102CE000013406BF52EA033591EA030F41F4002193
:102CF00030BD00BF90F0000F04BF0021704730B519
:102D00004FF4806404F132044FF000054FF00001ED
:102D100050E700BF90F0000F04BF0021704730B5AE
:102D20004FF4806404F1320410F0004548BF404283
:102D30004FF000013EE700BF42004FEAE2014FEAD8
:102D400031014FEA02701FBF12F07F4393F07F4FB3
:102D500081F06051704732F07F4208BF704793F0B6
:102D60007F4F04BF41F40021704730B54FF46074C9
:102D700001F0004521F000411CE700BF50EA0102CC
:102D800008BF704730B54FF000050AE050EA010275
:102D900008BF704730B511F0004502D5404261EBE5
:102DA00041014FF4806404F132045FEA915C3FF426
:102DB000D8AE4FF003025FEADC0C18BF03325FEAC3
:102DC000DC0C18BF033202EBDC02C2F1200300FA74
:102DD00003FC20FA02F001FA03FE40EA0E0021FA99
:102DE00002F11444BDE600BF70B54FF0FF0C4CF487
:102DF000E06C1CEA11541DBF1CEA135594EA0C0F39
:102E000095EA0C0F00F0DEF82C4481EA030621EA73
:102E10004C5123EA4C5350EA013518BF52EA0335AE
:102E200041F4801143F4801338D0A0FB02CE4FF060
:102E30000005E1FB02E506F00042E0FB03E54FF090
:102E40000006E1FB03569CF0000F18BF4EF0010E88
:102E5000A4F1FF04B6F5007F64F5407404D25FEA84
:102E60004E0E6D4146EB060642EAC62141EA555137
:102E70004FEAC52040EA5E504FEACE2EB4F1FD0C79
:102E800088BFBCF5E06F1ED8BEF1004F08BF5FEAF7
:102E9000500E50F1000041EB045170BD06F00046A9
:102EA00046EA010140EA020081EA0301B4EB5C0456
:102EB000C2BFD4EB0C0541EA045170BD41F480114E
:102EC0004FF0000E013C00F3AB8014F1360FDEBF73
:102ED000002001F0004170BDC4F10004203C35DA4F
:102EE0000C341BDC04F11404C4F1200500FA05F3D2
:102EF00020FA04F001FA05F240EA020001F0004273
:102F000021F0004110EBD37021FA04F642EB0601E8
:102F10005EEA430E08BF20EAD37070BDC4F10C0412
:102F2000C4F1200500FA04F320FA05F001FA04F2D6
:102F300040EA020001F0004110EBD37041F10001C2
:102F40005EEA430E08BF20EAD37070BDC4F12005CD
:102F500000FA05F24EEA020E20FA04F301FA05F235
:102F600043EA020321FA04F001F0004121FA04F2DD
:102F700020EA020000EBD3705EEA430E08BF20EAAD
:102F8000D37070BD94F0000F0FD101F000464000E7
:102F900041EB010111F4801F08BF013CF7D041EA69
:102FA000060195F0000F18BF704703F0004652006D
:102FB00043EB030313F4801F08BF013DF7D043EA3E
:102FC0000603704794EA0C0F0CEA135518BF95EAF4
:102FD0000C0F0CD050EA410618BF52EA4306D1D17B
:102FE00081EA030101F000414FF0000070BD50EA9A
:102FF000410606BF1046194652EA430619D094EA24
:103000000C0F02D150EA013613D195EA0C0F05D10D
:1030100052EA03361CBF104619460AD181EA030161
:1030200001F0004141F0FE4141F470014FF0000019
:1030300070BD41F0FE4141F4780170BD70B54FF0B4
:10304000FF0C4CF4E06C1CEA11541DBF1CEA135534
:1030500094EA0C0F95EA0C0F00F0A7F8A4EB050416
:1030600081EA030E52EA03354FEA013100F088800D
:103070004FEA03334FF0805545EA131343EA1263D6
:103080004FEA022245EA111545EA10654FEA00268B
:103090000EF000419D4208BF964244F1FD0404F544
:1030A000407402D25B084FEA3202B61A65EB0305A0
:1030B0005B084FEA32024FF480104FF4002CB6EB5D
:1030C000020E75EB030E22BFB61A754640EA0C00DD
:1030D0005B084FEA3202B6EB020E75EB030E22BF1D
:1030E000B61A754640EA5C005B084FEA3202B6EB5E
:1030F000020E75EB030E22BFB61A754640EA9C001D
:103100005B084FEA3202B6EB020E75EB030E22BFEC
:10311000B61A754640EADC0055EA060E18D04FEAAA
:10312000051545EA16754FEA06164FEAC30343EA4A
:1031300052734FEAC2025FEA1C1CC0D111F4801F17
:103140000BD141EA00014FF000004FF0004CB6E710
:1031500011F4801F04BF01430020B4F1FD0C88BFAF
:10316000BCF5E06F3FF6AFAEB5EB030C04BFB6EBBA
:10317000020C5FEA500C50F1000041EB045170BDAD
:103180000EF0004E4EEA113114EB5C04C2BFD4EBDA
:103190000C0541EA045170BD41F480114FF0000E5E
:1031A000013C90E645EA060E8DE60CEA135594EADA
:1031B0000C0F08BF95EA0C0F3FF43BAF94EA0C0FDD
:1031C0000AD150EA01347FF434AF95EA0C0F7FF452
:1031D00025AF104619462CE795EA0C0F06D152EAA6
:1031E00003353FF4FDAE1046194622E750EA41068A
:1031F00018BF52EA43067FF4C5AE50EA41047FF49B
:103200000DAF52EA43057FF4EBAE12E74FEA4102FD
:1032100012F5001215D211D56FF47873B3EB625228
:1032200012D94FEAC12343F0004343EA505311F04F
:10323000004F23FA02F018BF404270474FF00000E1
:10324000704750EA013005D111F0004008BF6FF01F
:10325000004070474FF00000704700BF5374617426
:1032600065204368616E6765000000001C0B1F2528
:103270001E00000015160F18130000002C15024048
:103280002C2502402CD5024028150240282502405A
:1032900028D50240241502402425024024D50240AE
:1032A000201502402025024020D502401015024082
:1032B0001025024010D502400C1502400C2502409A
:1032C0000CD50240081502400825024008D50240EE
:1032D000001502400025024000D5024018110240AE
:1032E0001821024018D10240101102401021024062
:1032F00010D10240041102400421024004D10240D6
:10330000081002400820024008D002400410024089
:103310000420024004D00240600500006405000063
:10332000680500006C0500005254582056352E35B3
:103330002E3500000000000000000000000000002A
:10334000000000000000000000000000000000007D
:10335000000000000000000000000000000000006D
:10336000000000000000000000000000010000005C
:10337000E803000000000000F0060020100000003C
:10338000000000000000000000000000000000003D
:103390000000000000000000300700200080000056
:1033A000000000000000000000000000000000001D
:1033B000000000000000000000000000000000000D
:1033C000000C00001C340000F8330000AD1D0000AC
:1033D0008D1D0000E033000004000000000000002C
:1033E0000000000000000000340200203400000053
:1033F000E401002050000000000000000000000078
:103400006804002044000000680200200002000060
:103410002800000000000000000000000000000084
:1034200000000000AC04002044000000F004002074
:103430000002000001000000000000000000000089
:1034400028330000D5B3FB0200000000000000009C
:10345000000000000000000000000000000000006C
:10346000000000000000000000000000000000005C
:10347000000000000000000000000000000000004C
:10348000000000000000000000000000000000003C
:10349000000000000000000000000000000000002C
:1034A000000000000000000000000000000000001C
:1034B000000000000000000000000000000000000C
:1034C00000000000000000000000000000000000FC
:1034D00000000000000000000000000000000000EC
:0434E00000000000E8
:0400000300000335C1
:00000001FF
