:100000007CA60020BD040000B1040000A50400008F
:10001000B1040000990400008D04000000000000FD
:10002000000000000000000000000000FD220000B1
:10003000B10400000000000097230000A723000087
:10004000B1040000B1040000B1040000B1040000DC
:10005000B1040000B104000095080000B1040000E4
:10006000B1040000B1040000B1040000B1040000BC
:10007000B1040000B1040000B1040000B1040000AC
:10008000B1040000B1040000B1040000B10400009C
:10009000B1040000B1040000B1040000B10400008C
:1000A000B1040000B1040000B1040000B10400007C
:1000B000B1040000B10400000000000000000000D6
:1000C000B1040000B1040000B1040000B10400005C
:1000D000B1040000B1040000B1040000B10400004C
:1000E000B10400000000000000000000000000005B
:1000F00000000000B104000000000000B104000096
:1001000000000000000000000000000000000000EF
:1001100000000000000000000000000000000000DF
:1001200000000000000000000000000000000000CF
:1001300000000000000000000000000000000000BF
:1001400000000000000000000000000000000000AF
:10015000000000000000000000000000000000009F
:10016000000000000000000000000000000000008F
:10017000000000000000000000000000000000007F
:10018000000000000000000000000000000000006F
:10019000000000000000000000000000000000005F
:1001A000000000000000000000000000000000004F
:1001B000000000000000000000000000000000003F
:1001C000000000000000000000000000000000002F
:1001D000000000000000000000000000000000001F
:1001E000000000000000000000000000000000000F
:1001F00000000000000000000000000000000000FF
:1002000038B5184B1C680CB3174B9879197A1C7CBD
:100210009A7C80F0010081F0010184F0010482F0F9
:10022000010298711972D879D97A1C7480F0010092
:1002300081F00101D871D972587B597C9A7480F091
:10024000010081F001015873597438BD0748012538
:100250001D6000F047FB044B22461D7321462046DB
:10026000DFE700BFA8000020C00000201C2F000016
:100270002DE980482B482C4F2C4E2D4CDFF8B8B080
:10028000DFF8B8A02B4D83B000F02CFB4FF0010835
:100290004FF000093968336801EB810121442046A1
:1002A00001F8038000F0ECF9DAF8003039680193C6
:1002B000DBF80030326801EB81001944019B3960A2
:1002C0002044134400F80290336091B9CBB1042B61
:1002D00005D14FF0FF32CBF80010CAF800202A6891
:1002E0000132642A2A60D7D1C5F8009001F05EFE81
:1002F000D0E75BB90429F2D1CBF80030CAF800800E
:10030000EDE7CBF80080CAF80030E8E7042BE6D12F
:100310000429E4D14FF0FF32CBF80020CAF8009056
:10032000DDE700BF2C2F0000B8000020B400002043
:10033000C0000020BC000020B0000020AC00002065
:100340002DE980482B482C4F2C4E2D4CDFF8B8B0AF
:10035000DFF8B8A02B4D83B000F0C4FA4FF00108CD
:100360004FF000093968336801EB810121442046D0
:1003700001F8038000F084F9DAF80030396801935D
:10038000DBF80030326801EB81001944019B3960D1
:100390002044134400F80290336059B1042916D068
:1003A0002A680132642A2A60DED1C5F8009001F083
:1003B000FDFDD7E723B9CAF80080CBF80030EFE79E
:1003C000042BEDD1CAF80010CBF80080E8E7042B2D
:1003D00006D14FF0FF32CAF80020CBF80090DFE7DB
:1003E000002BDDD14FF0FF32CAF80030CBF80020EF
:1003F000D6E700BF3C2F0000B8000020B40000206A
:10040000C0000020BC000020B0000020AC00002094
:1004100038B500F003F9194800F0CAF9C8224FF4C2
:10042000FA61642000F008FC00F0A8FD00221146EB
:10043000134801F07DFD002211460546114801F0E8
:1004400077FD18210446284601F092FD1821204628
:1004500001F08EFD00231A4601210B4801F00EFF2A
:100460004FF4FA7101F02CFF00F0A4FD02210846C0
:100470004FF0FF3200F044F9002038BD4C2F00004F
:100480004103000071020000010200004FF0FF3242
:100490000221042000F034B94FF0FF320121042082
:1004A00000F02EB94FF0FF320021042000F028B9EF
:1004B00004214FF0FF32084600F022B908B5254963
:1004C000254B994221D2013B5B1A9D08032B0A461A
:1004D00005F101053BD9214E6C08334606EBC404F7
:1004E000D3F800C05868C2F800C008339C4250607E
:1004F00002F10802F4D1EA0707D525F0010506EB61
:10050000850301EB85021B681360154A154B9A425F
:1005100018D2013B991A8C080329134604F10104EF
:100520000ED9600802EBC000002119605960083341
:100530008342FAD1E30705D524F0010402EB8402DB
:100540000023136000F010F8FFF762FFFEE7034B93
:10055000D9E700BF00000020A40000209830000070
:10056000A80000207C86002010B44FF0E02208494B
:10057000D2F8883D4FF0804043F47003C2F8883DC4
:100580000124044B04600B605DF8044B704700BF0E
:10059000DC0000200090D0034FF47A7300BF00BF4E
:1005A00000BF00BF00BF00BF00BF00BF00BF00BF53
:1005B00000BF00BF00BF00BF00BF00BF00BF00BF43
:1005C00000BF00BF00BF00BF00BF00BF00BF00BF33
:1005D00000BF00BF00BF00BF00BF00BF00BF00BF23
:1005E00000BF00BF00BF00BF00BF00BF00BF00BF13
:1005F00000BF00BF00BF00BF00BF00BF00BF00BF03
:1006000000BF00BF00BF00BF00BF00BF00BF00BFF2
:1006100000BF00BF013BC1D1704700BF70B5164C91
:10062000661D14F8015B284600F026F900212846D3
:1006300000F0F8F8A642F4D1104C661D14F8015BE6
:10064000284600F00BF90021284600F0EBF8B442F0
:10065000F4D10C210E2000F0D9F80C21172000F065
:10066000D5F80621282000F07BF80022BDE8704074
:100670000321104600F0C4BA642F00005C2F000074
:100680002DE9F04F83B0431DDFF870A0194F01939F
:1006900080461AF8019B184C484600F0EDF8454694
:1006A0002B78A34614F8010BB3B100F0D7F8FFF78D
:1006B00073FF9BF8000000F0DFF8BC4205F1050570
:1006C000EED1484600F0CAF8019B08F101089845B0
:1006D000DFD103B0BDE8F08F00F0CEF8FFF75CFF8C
:1006E0009BF8000000F0C8F8BC4205F10505D7D121
:1006F000E7E700BF692F0000642F00005C2F0000B7
:10070000154B2DE9F04114460646585C134F8846B8
:1007100000F0B2F8621C01D0002C17DDBD5D284648
:1007200000F09CF84FF4FA72FFF736FF013AFBD164
:10073000284600F0A1F84FF4FA72FFF72DFF013AB6
:10074000FBD1631CEBD0013C002CE7DC17F8080060
:10075000BDE8F04100F082B85C2F0000642F00007B
:10076000F8B5124C00250E46074629463046C4F817
:10077000005500F057F82946384600F047F8304653
:1007800000F06CF801234FF0EB710422C4F80C6503
:10079000C4F81475C4F82415C4F86C55C4F80025C1
:1007A000A3602360C4F80851F8BD00BF00200040DA
:1007B00003786BB1074A0021C2F81C35D2F81C310E
:1007C000002BFBD0C2F81C1110F8013F002BF3D115
:1007D000704700BF002000400B1E13DD411E0A4A77
:1007E00010B4C818002411F8013FC2F81C35D2F823
:1007F0001C31002BFBD08142C2F81C41F3D15DF8C3
:10080000044B7047704700BF002000401F288ABF7C
:10081000024B034B203843F820107047000A005069
:10082000000700501F2830B40DD9084C084A203862
:100830001568012383402B4341F00101136044F804
:10084000201030BC7047034C034AF1E7000A005007
:100850001408005000070050140500501F288ABFDC
:10086000034A044A2038012383401360704700BFC5
:1008700008080050080500501F288ABF034A044A90
:100880002038012383401360704700BF0C080050DC
:100890000C0500502DE9F04100240E4DDFF840809A
:1008A0000D4F26462B684BB158F8243057F82420BA
:1008B000013348F8243002B190472E600134082CEF
:1008C00005F10405EED1054A136801331360BDE854
:1008D000F08100BF00610040040100200001002001
:1008E000E00000200FB42DE9F0438DB014AF0021DB
:1008F00057F8044B0B912578029755B307AE0BE0E0
:10090000102920D00B46013130336B440B9103F892
:10091000145C65780134F5B1252DF1D16378002B95
:10092000EED0A3F163020134152A1CD8DFE802F0EF
:10093000D4981B1B1B1B1B1B1B1B1B1B1B1B1B1BD1
:10094000731B3B1B1B263046FFF746FF012100238C
:10095000DAE7294607AE3046FFF73EFF0DB0BDE8A7
:10096000F04304B07047102900F01D810A460131A0
:1009700030326A440B9102F8143CCAE7B94659F880
:10098000045B002D40F0D480102900F025810D4635
:10099000013105F130030DEB030530230B914F4678
:1009A00005F8143CB5E7002357F804CB9248DFF86C
:1009B0004C928DF81B300DF11B08A9FB0C23DB08B2
:1009C00003EB8302ACEB4202E646855C08F8015D6E
:1009D000BEF1090F9C46F0D8002D9AD04FF00109C6
:1009E0000AE001F130036B44013103F8145C18F89C
:1009F000015F0B91002D8CD01029F2D13046FFF70A
:100A0000EBFE8DF81C5018F8015FCDF82C900121F9
:100A1000002DE6D17DE757F8048B98F80050002DA3
:100A20003FF477AF4FF001090BE001F130036B4465
:100A300001310B9103F8145C18F8015F002D3FF4AD
:100A400068AF1029F1D13046FFF7C6FECDF82C90E3
:100A50008DF81C5018F8015F0121002DE5D158E7F1
:100A600057F8043B002B44DB00226348DFF88CE19D
:100A70008DF81B200DF11B08AEFB0352D20802EBD0
:100A80008205A3EB45059C46455D08F8015DBCF178
:100A9000090F1346F0D8002D3FF43BAF4FF001098A
:100AA0000BE001F130036B44013103F8145C18F8DA
:100AB000015F0B91002D3FF42CAF1029F1D130468E
:100AC000FFF78AFE8DF81C5018F8015FCDF82C90C6
:100AD0000121002DE5D11CE757F8045B1029EDB288
:100AE00069D00B46013130336B440B9103F8145C31
:100AF0000FE700224048DFF804918DF81B205B428D
:100B00000DF11B0CA9FB0352D20802EB8205A3EBEB
:100B100045059E46455DBEF1090FE04613460CF8BB
:100B2000015DEFD82D25A8F102080CF8015CB5E7AE
:100B3000102946D030200A184B1C6A44102B0B9306
:100B400002F8140C4DD0023130336B44782203F894
:100B5000142C29480B9100238DF81B300DF11B0834
:100B600005F00F030F2DC75C08F8017D4FEA15153E
:100B7000F6D87FB3012509E00B46591C30336B448E
:100B80000B9103F8147C18F8017F1FB31029F3D1DF
:100B90003046FFF721FE8DF81C7018F8017F0B9589
:100BA00037B30123E9E730460193FFF715FE019BB8
:100BB00001210022DCE63046FFF70EFE0121002372
:100BC00091E73046FFF708FE30238DF81C300221F4
:100BD0000123B9E74F469CE63046FFF7FDFD0121B2
:100BE000D7E619463046FFF7F7FD01210023ABE7B2
:100BF0004F4601218DE600BF6C2F0000CDCCCCCC40
:100C000038B514460D4600F033F81CB9094B3222B2
:100C10001A6038BD4FF440712046FFF703FE2046AE
:100C2000FFF71CFE284600F077F8024B32221A60CC
:100C300038BD00BF24010020F8B50B4B0546D41782
:100C400083FB0203132AC4EBE304A1EB050696FB26
:100C5000F4F608DD054F39682846142200F014F830
:100C6000013C3544F7D1F8BD676666662401002073
:100C7000044B05210122C3F80C15C3F86005C3F825
:100C80000025704700C0014030B41E4B1E4C93FB42
:100C9000F0F39BB203FB01F102FB00F01B4A84FB63
:100CA0000154C9174FEAE07CC1EB641182FB0020BC
:100CB000174A89B20024C2F8083561F30F04154BB6
:100CC000C2F82035CCEBA01061F31F44023801219B
:100CD0000225C2F82455C2F828051C609160D2F89C
:100CE0001031002BFBD0002001230949C2F810016C
:100CF0005360D1F80431002BFBD00023C1F804313C
:100D000030BC704720A107001F85EB51D34D621006
:100D100000C00140280100200A4B012210B41044F9
:100D2000C3F80025084CC3F8100541F2D071032226
:100D3000C3F81845C3F8F815C3F8F0255DF8044B5F
:100D4000704700BF0070004000070200F8B5544D26
:100D50002B7A012B7CD0002B40F09B80514CE66A13
:100D6000238AE268A5F85430216BA368EA6530460F
:100D70002B6400F039F908B1C5F88060D4E9057139
:100D8000384600F031F9002878D0D4E907613046C0
:100D90006F6700F029F9002865D0D4E90971384659
:100DA000AE6700F021F9002856D0666BEF673EB1C0
:100DB000D6E902233168304600F0A6F9C5F8846010
:100DC000A66B3EB1D6E902233168304600F09CF9AB
:100DD000C5F88860E66B3EB1D6E90223316830463B
:100DE00000F092F9C5F88C60266C3EB1D6E902237A
:100DF0003168304600F088F9C5F89060666C3EB105
:100E0000D6E902233168304600F07EF9C5F89460D7
:100E1000A66C3EB1D6E902233168304600F074F981
:100E2000C5F89860E66C3EB1D6E9022331683046D9
:100E300000F06AF9C5F89C60246D3CB1D4E9022346
:100E40002168204600F060F9C5F8A04001232B720C
:100E500001F00EFB0020F8BD666BD5F88070EF67DF
:100E6000002EA5D1ACE7D4E90971D5F88060AE6752
:100E7000384600F0B9F8002897D1EDE7D4E90761CA
:100E8000D5F880706F67304600F0AEF8002884D146
:100E9000E9E74FF0FF3001F0E7FA4FF0FF30F8BD1F
:100EA00000000020C42F000070B5284C237A012BCD
:100EB00047D101F01BF800283CD0254AFF2382F8D7
:100EC000223092F82230D26863F0FF03DB432DD04A
:100ED000B3FA83F3C3F12003C2F30222934227D96A
:100EE000FE2202FA03F31B4E194A1B497068DBB25B
:100EF000D37701F067FA0546E0B901F0A1FA206165
:100F000001F086FA154800F003FB00F01DFC336881
:100F1000DB074CBF0223032383F31488BFF36F8FD7
:100F20000223237201F0A8FA284670BDC2F3022200
:100F3000531CD5E74FF0FF3001F096FA4FF0FF3524
:100F4000F2E76FF0060001F08FFAF7E700000020EB
:100F500000ED00E0C42F0000A72300001C000020CB
:100F6000704700BF38B504460D4601F087FA2946A0
:100F70002046BDE8384001F069BA00BF08B5FFF768
:100F8000EFFF01F073FAEFF305834BB9EFF3108332
:100F900033B9EFF311831BB9DFF814C000DF08BDCC
:100FA0006FF0050001F060FA6FF0050008BD00BFAA
:100FB0004D0D000008B501F05DFAEFF305834BB964
:100FC000EFF3108333B9EFF311831BB9DFF814C0CB
:100FD00000DF08BD6FF0050001F046FA6FF0050074
:100FE00008BD00BFA90E000070B503460C4620B135
:100FF00040EA010212F0070506D0184600222146F9
:1010000001F026FA002070BD1729F6D9A1F10804D5
:1010100022181026196082604660055184680122FA
:101020006660C56001F014FA012070BD70B5C0B3F0
:10103000B9B3032A35D801F10F05846825F00705F7
:1010400000F1080E03E02368A64653B31C46DEF801
:101050000460A4EB0E0326F0030CA3EB0C039D42EB
:10106000F1D8446803682C440344446053F8046C8A
:10107000083BB44288BF5C60DEF80430BBB123F0AB
:1010800003030EEB0304DEF800604EF80360154323
:101090006560CEF800400834234601F0DBF92046B5
:1010A00070BD0023002401F0D5F9204670BD154322
:1010B000CEF804500EF10804EEE700BF10B5D8B129
:1010C000D1B1A1F1080C00F10803002403E01A6873
:1010D0001C468AB113466345F9D15A6822F0030CC5
:1010E0004268A2EB0C0242605CB11B6823600122E3
:1010F00001F0B2F9012010BD002201F0ADF900208D
:1011000010BD5C60F3E700BFF8B5864630B30C460F
:1011100029B315462AB31E462BB302FB01F74FF045
:10112000000CCEF80010C0E90223CEF81430C0F84D
:1011300004C003EB070CC0F810C001F08FF9B4F144
:10114000010C08D031460846BCF1010C294401606D
:10115000F9D17F1B3E44002333600120F8BD0846CF
:10116000F8BD1046F8BD1846F8BD00BF70B504467E
:10117000D8B100F1140353E8001F11B9BFF32F8F4A
:1011800004E00A6843E8002000B1F4E70D4639B1F5
:10119000231D53E8002F501C43E8000606B1F8E772
:1011A000204601F05DF9284670BD014601F058F96E
:1011B0002546F8E7F8B50C46034608B3C2688A42EC
:1011C0001ED802698A421BD900F1140215680D600D
:1011D000BFF35F8F52E8005F0E68AE42F6D142E87F
:1011E000001707B1F2E7043353E8002F541E43E819
:1011F000004505B1F8E7002201F034F90020F8BD00
:1012000018466FF00302214601F02CF96FF003003D
:10121000F8BD00BF38B51E4C01F00EF9E36801338C
:10122000E36000F0D9F9002000F096FA236D03B1D5
:101230009847236C5BB1A269E16B914208D0E263ED
:10124000D169002918BF0B46013BD3611BB138BDE2
:10125000D369002BF8D1237A022BF8D1656A002DCF
:10126000F5D0E36B95F9202093F920309A42EED126
:10127000284600F085F9E06B00F08CF9E06B01F096
:1012800011F9284600F060FA236CE563EB6138BD84
:101290000000002070B5284E06F1560406F15A05EC
:1012A000B6F85420D4E85F3F13B9BFF32F8F04E0A2
:1012B000591EC4E8501F00B1F4E79BB2002B36D092
:1012C000D5E85F3F591C8A4200D80021C5E8501F6D
:1012D00000B1F5E7F26D9BB252F8230038B3037802
:1012E000F13B082BDCD801A252F823F029130000AF
:1012F000A112000023130000A1120000A11200009F
:101300001D13000017130000A112000011130000AC
:10131000336F9847C4E7F36E9847C1E7B36E9847B9
:10132000BEE7736E9847BBE7336E9847B8E7BDE8F2
:101330007040002000F010BA0000002070B41A4A7B
:101340000146B2F8543002F15604D4E85F0F8342EC
:1013500002D8BFF32F8F04E0451CC4E8565F06B1E6
:10136000F3E780B2834203D870BC0220FFF7FABDD6
:1013700002F15804D4E85F0F451CAB4200D80025A9
:10138000C4E8565F06B1F5E783B2D46D44F8231084
:10139000537A1BB10123937270BC7047034B4FF01B
:1013A00080525A6070BC70470000002000ED00E0E1
:1013B00070B51F4C237A022B01D0002070BD656AE6
:1013C000002DFAD0606995F9203090F920108B42F9
:1013D000F3D1EB6843B1AA689A600AB1EB68D360B5
:1013E0000023EB6090F9201001234370636AD3B1AE
:1013F000104E03E09A681E468AB1134693F92020E6
:101400008A42F7DAC0E90236B060D86001F04AF8E3
:1014100002236B702846A56101F046F8CDE7C0E9CC
:1014200002239860F2E7034AC0E902326062EDE706
:10143000000000201C000020F8B5264E7569074604
:101440000C46284601F02AF8631C6F7011D0F36A2D
:1014500000202BB938E019691846A41A21B30B46AD
:10146000DA69A242F7D9C5E90430EC6108B3056135
:1014700020E0336B1BB31A461B69002BFBD14FF0E6
:10148000FF31C5E90432E9611561706A83687362EE
:101490000BB1114ADA6000220223C2604370B061CE
:1014A00001F002F80120F8BDC5E90413EC611D61EB
:1014B000EBE7F562DA695D61121BDA61E5E7EC6181
:1014C0002B616B613563E0E7EC612B616B61F56269
:1014D000DBE700BF000000201C000020836891F9BA
:1014E00020C023B910E09A6818464AB1134693F910
:1014F00020206245F7DAC1E902308160D960704787
:10150000C1E9022399607047C1E9023081607047E8
:101510000346806882689A6002B1D3600023C3608A
:10152000704700BF034610B924E0DB68EBB11A78BE
:10153000F12AFAD0C26832B18168916009B1C268FB
:10154000CA600022C2609A6890F920C022B912E0F5
:101550009168134651B10A4692F920106145F7DAB5
:10156000C0E902239860D06070477047C0E902125A
:10157000906070477047C0E902239860704700BFD1
:10158000C36833B182689A600AB1C368D36000232C
:10159000C360704701230F4943704B6A90F920C024
:1015A00093B11C3103E09A6819464AB1134693F986
:1015B00020206245F7DAC0E902318860D8607047C0
:1015C000C0E902239860704701F11C02C0E90232B1
:1015D00048627047000000202DE9F041544DEC6A4C
:1015E00082B0002C46D0E669013EE661002E41D172
:1015F00005F11C0801276378632B7FD04FD8432B5C
:1016000000F0878039D8132B69D0332B02D12046C4
:1016100000F050FF94F82230A26B13F0100F14BFAB
:10162000202360232046D15800F03AFFE3682BB115
:10163000A2689A600AB1E368D360E66067706B6A7B
:1016400094F9200041462BB96EE09A681946002AA9
:1016500041D0134693F920208242F6DAC4E90231E0
:101660008C60DC60246924B1E369002BC3D00023C3
:101670006361EC6202B0BDE8F081532BCAD12378DC
:10168000F12B204603D1C0680378F12BFBD0214613
:10169000019001F037FB019800F020FFBAE7832B9F
:1016A00021D0932B0AD12378F12B204603D1C06897
:1016B0000378F12BFBD000F023FFABE7732BA9D10C
:1016C0002378F12B204603D1C0680378F12BFBD09F
:1016D00000F00CFF9EE7C4E902239C60C2E72046AD
:1016E00000F0ECFE96E72378F12B204603D1C0688A
:1016F0000378F12BFBD000F00FFF8BE72378F12B61
:10170000204603D1C0680378F12BFBD000F0ECFE3B
:1017100080E72378F12B204603D1C0680378F12BB2
:10172000FBD000F0D9FE75E7C4E902386C6299E796
:101730000000002090F82230806B13F0100F14BFCF
:101740002023602318447047024A022141709061AF
:1017500000F0AABE0000002070B53F4D2B7A6A69E8
:1017600000283CD0022B90F920C004464FF0010322
:1017700013D063706B6A002B5AD0384904E09A6822
:101780001946002A50D0134693F920206245F6DA14
:10179000C4E902318C60DC6070BD92F920008445A0
:1017A000E7DD53706B6A05F11C062BB949E09968B7
:1017B0001E46002941D00B4693F920108142F6DCE9
:1017C000C2E90236B260DA60104600F06BFE022316
:1017D0006370AC612046BDE8704000F065BE022B2E
:1017E0006C6AD9D1002CD7D092F9200094F920301E
:1017F0008342D1DDE36843B1A168996009B1E36830
:10180000CB600023E36092F92000012353706B6AE0
:10181000EBB1124E03E099681E4671B10B4693F985
:1018200020108142F7DCCBE7C4E902239C6070BD45
:101830000A4AC4E902326C6270BDC2E902139A60BE
:10184000C2E705F11C01C2E902316A62BCE7034943
:10185000C2E902316A62B7E7000000201C000020E4
:101860002DE9F04F85B0002800F049818A461546E1
:101870000746002A00F0BA8013680093D2E90134C9
:10188000D5F81890D2E90426002C00F0948014F0CA
:10189000030840F0DF80E968432940F2DB80002A3A
:1018A00000F0DE805107904640F0B680002E00F038
:1018B000B380B9F1000F40F0B9804FF0180916F06D
:1018C000070C40F0A9809C49A6F14800884200F22C
:1018D000A380002C00F00881002A00F0F280DFF8DD
:1018E0006CB2964915466246E370B044009B636053
:1018F000A8F14003A3630023A2704FFA89F90A6894
:10190000E763194669F3070169F30F2140F2F1100B
:10191000218420808A49E362FD205207C4E90C56E5
:10192000C4E90233C4E90433C4E90633C4E9093322
:10193000608429601AD5B608B6F1110C16D0122EA3
:1019400011D0133E72080132291D4FF0CC30013303
:101950009A420860486001F10801F8D8BCEB420FD8
:1019600004D005EBC2054FF0CC336B60A36B754917
:10197000C3F820A000221A605A609A60DA601A61E7
:101980005A619A61DA619A62DA621A635A636E4A3C
:101990009A634FF080725F62DA63CBF8601062681E
:1019A000E16B204600F070FD2046FFF7D5FE204693
:1019B00005B0BDE8F08FD5F80C80B8F1000F49D123
:1019C000002A7FF46FAFB9F1000F00F08F8009F1AA
:1019D000FF32372A2FD8002E40F0A080B046002CCE
:1019E00000F08B80DFF864B112224BE00092904649
:1019F0004FF0180916461346DFF850B10193DBF893
:101A00008800F0B1FFF7B2FB019B0446002C52D0D6
:101A10009DB34A49012267E76FF00A01002000F0F8
:101A20002FFD0024204605B0BDE8F08F09F1FF31FD
:101A300037297FF644AF6FF00B01002000F020FD46
:101A4000EFE7DBF8800001224421FFF7EFFA019B6A
:101A50000446DBE76FF00801002000F011FDE0E72D
:101A6000B9F1000FB3D1002E7FF427AFC846DFF8DD
:101A7000DCB012224FF0180904E0002E52D11322DC
:101A80004FF001082D49DBF884004E6D0292019160
:101A9000002839D00393FFF769FB01A90EC9054659
:101AA00000BBB8F1000F06D0DBF8880000283CD05E
:101AB0002146FFF77FFB6FF00401002000F0E0FCFF
:101AC000AFE7DFF888B09046DBF87400019300229E
:101AD0003146FFF7ABFA019B0546002DE1D01749CF
:101AE00048F00202A846FFE6154685E7002E7FF47F
:101AF000E4AE35464FF018097EE735467CE76FF0D7
:101B0000030100F0BDFC8CE702463146DBF87400AF
:101B10000193FFF78BFA019B0546DEE74FF00008C3
:101B20004246CCE64FF00108CEE7DBF880002146C4
:101B3000FFF7C4FABFE700BFB7FFFF7FC42F000065
:101B4000A52E5AE2BD1C0000FD1F00000000002071
:101B500010B50446002842D00278F12A3FD14A1E2F
:101B6000372A3CD84278042A45D090F920204BB23D
:101B70009A4201D1002010BD4FF0000263F307022A
:101B800063F30F22028400F083FC234601E0DB684C
:101B9000E3B11A78F12AFAD0E26832B1A168916013
:101BA00009B1E268CA600022E2609A6894F92000F4
:101BB00022B91CE09168134669B10A4692F92010D7
:101BC0008142F7DAC4E902239C60D4600020FFF769
:101BD000C3FD0020CFE7C4E902129460F6E7204677
:101BE0006FF0030100F04CFC6FF0030010BDC4E97E
:101BF00002239C60EAE76FF0020100F041FC6FF005
:101C0000020010BD70B504460E46154600F048FCB3
:101C100094F82230A26B13F0100F14BF202360231E
:101C2000D650E2692369511C26D033B1D9691144D9
:101C3000D961D4E904325A6123696269002A2DD03E
:101C40000021136161610023E36115BB01231A497F
:101C500063704B6A94F920003BB31C3103E09A682F
:101C60001946F2B1134693F920208242F7DAC4E90B
:101C700002318C60DC6070BD13B162695A61236906
:101C80006269002ADCD10C4A13630023E361002D52
:101C9000DCD02046BDE87040FFF75EBD064AD36247
:101CA000D1E7C4E902239C6070BD01F11C03C4E9C3
:101CB00002534C6270BD00BF000000204378332BFC
:101CC00000D0704770B590F82320436A910704460E
:101CD00016D412F0010F00F1280227D052E8005F5D
:101CE00005EA0301994203D0BFF32F8F002505E0D9
:101CF00025EA030142E8001000B1EFE72DB970BDFD
:101D0000D207856A0FD42B42F9D0294620460022FB
:101D1000FFF778FF94F82310606A23462A46BDE84F
:101D2000704000F0C9BBAB43E8D070BD52E8005F23
:101D30001D4203D1BFF32F8F002505E025EA0301E3
:101D400042E8001000B1F1E7002DD8D0DDE700BF78
:101D5000044B1A7A022A03D15B6A0BB1FFF76CBB02
:101D60000020704700000020704700BF10B50446F7
:101D7000FFF7FAFFA378002222809A0709D513F013
:101D8000100F216B0F4B10D0D3F88400FFF712FA1D
:101D9000A378DB0708D50B4BD3F8880050B1214658
:101DA000BDE81040FFF706BA10BD586FFFF786F97F
:101DB000A378EEE72146D3F88000BDE81040FFF796
:101DC0007DB900BF0000002070B5464C237A022B7D
:101DD0006BD1636A002B68D06569E86A00F060FF28
:101DE000AE69002E3AD00021304600F059FB96F83B
:101DF0002230B26B13F0100F14BF20236023002198
:101E0000D150F2693369511C58D033B1D9691144AA
:101E1000D961D6E904325A6133697269002A5AD00D
:101E200013610023736101230022F2617370636AFE
:101E300096F92000002B50D02B4904E09A681946EF
:101E4000002A44D0134693F920208242F6DAC6E9EC
:101E500002318E60DE60A86900F01EFB6B78232BD8
:101E600002D1AB6800229A61606A836863620BB139
:101E70001D4ADA6002230026C6604370A06100F0AC
:101E800013FBEFF309826661EB78AA63DB070DD5DC
:101E900004236B70EE60636BAB6003B1DD60656360
:101EA0002846BDE8704000F003BB70BD2846FFF730
:101EB0005DFF2846BDE8704000F0FABA13B17269C0
:101EC0005A6133697269002AAAD12363ABE7C6E974
:101ED00002239E60BFE7E362A5E7034AC6E9023238
:101EE0006662B8E7000000201C00002038B50D4CE9
:101EF0000D48A26D0D4D0021FFF7B2FC636EA86284
:101F00006BB1984708B1002038BDE26DE96C206ED6
:101F1000FFF7A6FCA864003818BF012038BD0120D7
:101F200038BD00BFC42F000049240000000000207D
:101F300070B506460D46144600F0A4FAEFF305838B
:101F400063B9EFF310834BB9EFF3118333B9DFF8C3
:101F50001CC030462946224600DF70BD6FF00501E7
:101F6000002000F08DFA002070BD00BF6118000055
:101F700038B504460D4600F089FAEFF305835BB9E6
:101F8000EFF3108343B9EFF311832BB9DFF818C0D7
:101F90002046294600DF38BD20466FF0050100F0DD
:101FA0006FFA6FF0050038BD511B000008B500F056
:101FB00071FAEFF305834BB9EFF3108333B9EFF305
:101FC00011831BB9DFF814C000DF08BD6FF00501F5
:101FD000002000F055FA6FF0050008BDB1130000B5
:101FE00008B500F063FADFF810C000DF4FF0FF31F2
:101FF000002000F045FAFEE7C91D000008B588473B
:10200000FFF7EEFF2DE9F04120B301290F4621D85B
:10201000164605463BB39C68D3F8008074B314F0B1
:1020200003022ED1DB681F2B2BD91346A37000238C
:10203000C4E90183C4E90333C4E905354FF4F973F6
:102040002046E770E6614146238000F03FFA2046D3
:10205000BDE8F0816FF00301002000F031FA0024A8
:102060002046BDE8F0819846104BD3F88C0070B143
:10207000FFF77CF8044694B10123D7E7DB68002B17
:10208000F2D06FF00801002000F01AFAE7E7D3F869
:10209000800001222021FEF7C9FF0446EBE76FF024
:1020A0000401204600F00CFAD9E700BF0000002030
:1020B000F8B5074600284BD00378F22B48D1002909
:1020C00046D04378022B2AD0294E336D002B47D0BF
:1020D000022343704161736C002533B919E0DC6859
:1020E0001D46891A002C2CD023461A698A42F6D93B
:1020F000C7E9025339611A699F60521A1A6165B1C2
:10210000EF60384600F0E6F90020F8BD8268A2B919
:10211000174E39610023BB60FB607764F1E7C36849
:102120004161002BF2D01A69006902441A61D7E9B3
:1021300002239A60D7E902233AB10D4ED360736C43
:10214000CAE7C7E902343961DAE7094E7364C3E7C5
:1021500038466FF0030100F0B3F96FF00300F8BDEB
:102160006FF0020100F0ACF96FF00200F8BD00BFA3
:10217000000000202DE9F8432D4D6C6CFCB1236963
:10218000D5F81490013B23610126B3B9E76817B174
:10219000A368BB60E768E86C6F6400231A4604F12B
:1021A000180100F0BFFC60B9E378012B1BD066700A
:1021B0006C6C14B12369002BE8D0C5F81490BDE80D
:1021C000F883AB69D5F814806B6121460320FEF7D4
:1021D000C9FE6B69002BE7D1E378C84508BF4FF013
:1021E0000009012BE3D16B6C62694FF0000C2BB935
:1021F00019E0D8689C46521A88B103461969914281
:10220000F7D9C4E902C3226119699C60891A19616E
:10221000BCF1000F0AD0CCF80C406C6CC9E7C4E9E3
:102220000302A360F7E72261A360E3606C64C1E787
:102230000000002008B500F0B3FB18B9034B044AB6
:102240001A6508BD4FF0FF3008BD00BF0000002038
:102250007521000000B5044683B04FF0FF33002223
:102260006946204600F0ACFC0028F6D1DDE900010B
:1022700000F028F9DDE900309847EEE7F8B50746A9
:102280000E4615461C4600F01FF9EFF305836BB9A7
:10229000EFF3108353B9EFF311833BB9DFF81CC0A0
:1022A000384631462A46234600DFF8BD6FF0050167
:1022B000002000F005F90020F8BD00BF0520000057
:1022C00038B504460D4600F003F9EFF305835BB91A
:1022D000EFF3108343B9EFF311832BB9DFF818C084
:1022E0002046294600DF38BD20466FF0050100F08A
:1022F000E7F86FF0050038BDB12000001EF0040FB4
:102300000CBFEFF30880EFF30980816911F8021C1C
:10231000002932D101B590E80F10E047BDE8005028
:10232000CCF80000244B93E80600914208BF7047A8
:102330001A6041B91EF0100F10D1204B186820F020
:10234000010018600AE02CE9F00F1EF0100F08BF22
:102350002CED108A81F822E0C1F838C0906B92F819
:10236000221061F0FF0E1EF0100F08BFB0EC108AB3
:10237000B0E8F00F80F309887047114A136899425A
:10238000FAD801B552F821C00FC8E047BDE80050A7
:10239000CCF80000704701B5FEF77CFFBDE80140B6
:1023A000EFF3098CBEE701B5FEF734FFBDE801404D
:1023B000EFF3098CB6E700001400002034EF00E0D2
:1023C00034300000D0B10F4B1B68B3FBF0F3013B7E
:1023D000B3F1807F12D20C4810B44FF0E0210B4CC7
:1023E0004FF0FF0C80F823C00022062008614B61EB
:1023F0008A61227010465DF8044B70474FF0FF3041
:10240000704700BFDC00002000ED00E0788600206F
:10241000074B1A782AB1074A00204FF080611870E4
:1024200051604FF0E022136943F0010313617047DC
:102430007886002000ED00E04FF0E0231B69704734
:102440004FF0FF30704700BFFEE700BFFEE700BF60
:10245000704700BF704700BF704700BF704700BFA4
:10246000704700BF704700BF704700BF704700BF94
:10247000704700BF704700BF704700BF704700BF84
:10248000704700BF704700BF704700BF704700BF74
:10249000704700BF704700BF704700BF704700BF64
:1024A000704700BF704700BF704700BF704700BF54
:1024B000704700BF704700BF704700BF704700BF44
:1024C000704700BF704700BF704700BF704700BF34
:1024D000704700BF704700BF704700BF704700BF24
:1024E000704700BF704700BF704700BF704700BF14
:1024F000704700BF704700BF704700BF704700BF04
:10250000704700BF704700BF704700BF704700BFF3
:10251000704700BF704700BF704700BF704700BFE3
:10252000704700BF2DE9F8430446002800F086807C
:1025300099460378FA2B40F08180884600297DD0A7
:102540008568174615B16B78832B52D004F10C00C7
:10255000FEF70CFE0646C8B14146626A0C3000F038
:1025600043FCF92300213370B170F770236B23B95A
:102570005BE05D68194605B32B46DA78BA42F8D3BA
:10258000C6E901319E60D9B926631AE0B9F1000F9E
:1025900027D0204641464A46FFF7B0FF49469320E0
:1025A000FFF7D6FB002845D0284B20465969FEF797
:1025B00095FF6FF00100BDE8F883C6E90153E662BC
:1025C0004E6004F1280353E8002F511C43E800102B
:1025D00000B1F8E741462046FFF796FF0020BDE82E
:1025E000F88320464146FFF791FF6FF00200BDE8F7
:1025F000F883FFF789FF2046FEF78AFF0122054690
:102600000021FFF7FFFA2846FFF794F84668626A50
:1026100005464146304600F0E7FBAB6803B11F704A
:1026200031462046FFF77AFFD8E77360B360E66271
:102630002663C6E72046FFF763FFBAE720466FF040
:102640000301FFF755FF6FF00300B4E7000000201F
:102650002DE9F04186780446002E46D04368C668CE
:10266000002B6AD082689A60A368002B6AD06268E7
:102670005A60002506F10C07257021463846FEF702
:1026800099FDB368002B56D03846FEF76FFD04461F
:10269000002850D03046FEF73BFF2A460746294621
:1026A000FFF7B0FA3846FFF745F8D0F80480726AB1
:1026B0000746414604F10C0000F096FBF923A57093
:1026C0002370387AE070336B2BB982E05A681D466C
:1026D000002A3AD01346DA788242F7D3C4E90135AA
:1026E0009C60002D34D1346333E0D0E90115AB6830
:1026F000284613B15B78832B41D0FFF705FF2B6B86
:10270000002B35D0E078002104E05A681946002AF1
:102710005BD01346DA788242F7D3C4E901319C607A
:1027200000292AD04C60283555E8003F5A1C45E85E
:10273000002101B1F8E7BDE8F0818368F362A36886
:10274000002B94D16368336393E7C4E90123F462F7
:102750006C6006F1280353E8002F511C43E8001079
:1027600000B1F8E741463046BDE8F041FFF7CCBE86
:102770006360A360EC622C63D5E72C63D3E7FFF7BB
:10278000C3FE2846FEF7C4FE324631460746FFF731
:1027900039FA3846FEF7CEFF47686A6A064604F102
:1027A0000C01384600F020FBB3680BB1E2781A70D8
:1027B00039462846FFF7B2FE00232370214605F173
:1027C0000C00BDE8F041FEF7F5BCC4E90123EC6262
:1027D000A8E76360A360F4623463BAE72DE9F04FC1
:1027E000804683B0002800F0D18093460278FA2A10
:1027F00040F0CC808946002900F0C88000F1280A0A
:10280000544654E8002F12B9BFF32F8F04E0511E35
:1028100044E8001000B1F4E7002A00F08680D8F800
:102820002C40002C00F08180012702E0A468002CDD
:102830007BD0A61CD6E84F5FC6E8427F02B1F9E71D
:10284000EDB2002DF2D16368002B64D0A2689A60CB
:10285000A368002B65D062685A60D8F8242004F180
:102860000C01484600F0C0FABBF1000F02D0E3783B
:102870008BF8003049464046002508F10C06FFF76A
:102880004DFE257021463046FEF794FCD8F80830FE
:10289000002B3CD03046FEF769FC0446002836D0B9
:1028A0004046FEF735FE012206462946FFF7AAF903
:1028B0003046FEF73FFF4668D8F8242007463146E9
:1028C00004F10C0000F090FAF923A5702370387A17
:1028D000E070D8F830302BB949E05A681D46002A1C
:1028E0004FD01346DA788242F7D3C4E901359C60B1
:1028F000002D43D06C60504650E8003F5A1C40E821
:10290000002101B1F8E731464046FFF7FDFD002008
:1029100003B0BDE8F08FA368C8F82C30A368002B83
:1029200099D16368C8F8303097E79BB11A464046A2
:1029300049460193FFF7EEFD019B83201946FFF7FF
:1029400007FA80B1154B40465969FEF7C7FD6FF095
:102950000100DDE740464946FFF7E2FD6FF0020067
:1029600003B0BDE8F08F4046FFF7D6FDEFE76360A8
:10297000A360C8F82C40C8F83040BCE7C8F8304025
:10298000B9E7C4E90123C8F82C40B3E740466FF02B
:102990000301FFF7ADFD6FF00300B9E70000002071
:1029A0005D4B2DE9F047D3E91A56002E42D0B6FA16
:1029B00086F3032B3EDD06EB86029700002D47D001
:1029C000AC68D5F80090D5E90432002C4ED0A007B1
:1029D00040F08780E968332940F28380002B4FD094
:1029E00013F0030A40F08580974200F28280DFF8FE
:1029F00030811D46FA222B462270002508223146DE
:102A0000626284F802A01422C4F80490A560A56252
:102A1000E562256304F10C00FEF776FB3F4BC8F836
:102A2000703020466168FFF765FDC8F84C402846C5
:102A3000BDE8F0876FF003010020FFF759FDDFF8D4
:102A4000E0800024C8F84C404FF0FF30BDE8F0872C
:102A5000A946DFF8CC80D8F8A00018B3FEF786FBB3
:102A60000446C4B335B34FF0010AC3E7E968C1BBFC
:102A7000002B46D099073CD197423AD81D46E8E74B
:102A8000BABBDFF89C803946D8F87C00FEF7CEFA56
:102A9000054600B34FF0020A3A460021284600F0EE
:102AA00051F9A7E7D8F8800001223421FEF7BEFAD9
:102AB0000446D6E72A46D8F87C003946FEF7B6FA2F
:102AC0004FF0030A05460028E6D1D8F8A000E0B18F
:102AD0002146FEF76FFB6FF004010020FFF708FDB1
:102AE000AFE76FF008010020FFF702FDDFF830804C
:102AF000A7E76FF009010020FFF7FAFCDFF820805C
:102B00009FE7002AF5D11546A3E7D8F880002146B3
:102B1000FEF7D4FADFE700BFC42F00005126000003
:102B2000000000202DE9F04105460F4690461E4664
:102B3000FFF7E2FCEFF3058313B9EFF310830BB358
:102B40006DB32B78FA2B2AD14FB346BB05F10C009D
:102B5000FEF70CFB044650B36A6A39460C3000F0AD
:102B600043F9F92320462370C4E9017584F80380F2
:102B7000A670FEF7E3FB28463946FFF7C3FC304654
:102B8000BDE8F081EFF31183002BD9D1DFF82CC021
:102B9000284639464246334600DFBDE8F0812846E4
:102BA0006FF00301FFF7A4FC6FF00300E8E728468D
:102BB0003946FFF7ABFC6FF00200E1E72525000086
:102BC0002DE9F8430746884691461C46FFF7A0FCCE
:102BD000EFF305831BB9EFF31083002B40D0002FD8
:102BE00053D03B78FA2B50D1B8F1000F4DD0002CC8
:102BF0004BD107F1280353E8002F12B9BFF32F8FF1
:102C000004E0511E43E8001000B1F4E7002A34D07C
:102C1000FC6A002C31D0012601E0A4686CB3A51C2D
:102C2000D5E84F3FC5E8426F02B1F9E7DBB2002BB0
:102C3000F3D17A6A04F10C01404600F0D5F8B9F1FD
:102C4000000F02D0E37889F800302046E760FEF7F5
:102C500075FB38464146FFF761FC0020BDE8F8836C
:102C6000EFF31183002BBAD1DFF830C0384641466C
:102C70004A46234600DFBDE8F88338464146FFF761
:102C80004FFC6FF00200BDE8F88338466FF0030197
:102C9000FFF72EFC6FF00300E0E700BFDD27000028
:102CA00070B32DE9F041054600274FF001082C468E
:102CB0006D69E3781B0703D4002DF8D1BDE8F081DE
:102CC000204600212776FFF70DFCA3682046002B45
:102CD000F2D0FEF71DFC002206461146FEF792FFD9
:102CE000C4E90367F36A63610121204603B11C61F3
:102CF000F46284F81880FFF7F3FB002DD7D1DDE7ED
:102D0000704700BFC3789B0717D5C06890F921C0F2
:102D1000C36ADA78920709D59A688A4208BF8A6836
:102D200022B192F920209445B8BF94465B69002BEC
:102D3000EFD190F92030634500D1704780F820C072
:102D4000FEF7F0BB830730B547D0541E002A3ED0B3
:102D5000CAB2034601E0013C39D303F8012B9D07B9
:102D6000F9D1032C2CD9CDB205EB05250F2C05EBA1
:102D7000054535D9A4F1100222F00F0C03F1100E15
:102D8000E6444FEA121C1A46156055609560D560FE
:102D900010327245F8D10CF1010214F00C0F03EB64
:102DA000021204F00F0C13D0ACF1040323F0030360
:102DB0000433134442F8045B9A42FBD10CF0030441
:102DC0002CB1C9B21C4403F8011B9C42FBD130BD9D
:102DD00064461346002CF4D1F9E703461446C0E7D5
:102DE0001A46A446E0E700BF844641EA000313F018
:102DF00003036DD1403A41D351F8043B40F8043B02
:102E000051F8043B40F8043B51F8043B40F8043BC4
:102E100051F8043B40F8043B51F8043B40F8043BB4
:102E200051F8043B40F8043B51F8043B40F8043BA4
:102E300051F8043B40F8043B51F8043B40F8043B94
:102E400051F8043B40F8043B51F8043B40F8043B84
:102E500051F8043B40F8043B51F8043B40F8043B74
:102E600051F8043B40F8043B51F8043B40F8043B64
:102E700051F8043B40F8043B403ABDD2303211D304
:102E800051F8043B40F8043B51F8043B40F8043B44
:102E900051F8043B40F8043B51F8043B40F8043B34
:102EA000103AEDD20C3205D351F8043B40F8043B04
:102EB000043AF9D2043208D0D2071CBF11F8013B02
:102EC00000F8013B01D30B8803806046704700BFC8
:102ED000082A13D38B078DD010F003038AD0C3F1D7
:102EE0000403D21ADB071CBF11F8013B00F8013BB9
:102EF00080D331F8023B20F8023B7BE7043AD9D378
:102F0000013A11F8013B00F8013BF9D20B7803704C
:102F10004B7843708B7883706046704768656C6C43
:102F20006F2C2074696D6572210A000068656C6CF5
:102F30006F2C207461736B32210A000068656C6C21
:102F40006F2C207461736B31210A000068656C6C12
:102F50006F2C20776F726C64210A00001C0B1F25F8
:102F60001E00000015160F18130000003031323318
:102F700034353637383961626364656600000000B5
:102F80005254582056352E352E35000000000000D2
:102F90000000000000000000000000000000000031
:102FA0000000000000000000000000000000000021
:102FB0000000000000000000000000000000000011
:102FC0000000000001000000E80300000000000015
:102FD0003806002010000000000000000000000083
:102FE00000000000000000000000000000000000E1
:102FF00078060020008000000000000000000000B3
:1030000000000000000000000000000000000000C0
:103010000000000000000000000C00007430000000
:1030200050300000552200003522000038300000EA
:10303000040000000000000000000000000000008C
:103040007C010020340000002C0100205000000012
:103050000000000000000000B00300204400000059
:10306000B001002000020000280000000000000065
:10307000000000000000000000000000F403002039
:10308000440000003804002000020000010000009D
:08309000000000000000000038
:10309800802F0000D5B3FB020000000000000000F4
:1030A8000000000000000000000000000000000018
:1030B8000000000000000000000000000000000008
:1030C80000000000000000000000000000000000F8
:1030D80000000000000000000000000000000000E8
:1030E80000000000000000000000000000000000D8
:1030F80000000000000000000000000000000000C8
:1031080000000000000000000000000000000000B7
:1031180000000000000000000000000000000000A7
:103128000000000000000000000000000000000097
:043138000000000093
:04000003000004BD38
:00000001FF
