:100000002C2100204D0200003502000029020000D2
:10001000350200001D020000110200000000000077
:10002000000000000000000000000000F9020000D5
:10003000350200000000000005030000410200003E
:1000400035020000350200003502000035020000D4
:1000500035020000350200005D040000350200009A
:1000600035020000350200003502000035020000B4
:1000700035020000350200003502000035020000A4
:100080003502000035020000350200003502000094
:100090003502000035020000350200003502000084
:1000A0003502000035020000350200003502000074
:1000B00035020000350200000000000000000000D2
:1000C0003502000035020000350200003502000054
:1000D0003502000035020000350200003502000044
:1000E00035020000000000000000000000000000D9
:1000F0000000000035020000000000003502000092
:1001000000000000000000000000000000000000EF
:1001100000000000000000000000000000000000DF
:1001200000000000000000000000000000000000CF
:1001300000000000000000000000000000000000BF
:1001400000000000000000000000000000000000AF
:10015000000000000000000000000000000000009F
:10016000000000000000000000000000000000008F
:10017000000000000000000000000000000000007F
:10018000000000000000000000000000000000006F
:10019000000000000000000000000000000000005F
:1001A000000000000000000000000000000000004F
:1001B000000000000000000000000000000000003F
:1001C000000000000000000000000000000000002F
:1001D000000000000000000000000000000000001F
:1001E000000000000000000000000000000000000F
:1001F00000000000000000000000000000000000FF
:1002000008B500F053F9642000F05CF9002008BD47
:100210004FF0FF320221042000F0D4B84FF0FF323B
:100220000121042000F0CEB84FF0FF32002104205D
:1002300000F0C8B804214FF0FF32084600F0C2B801
:1002400004214FF0FF32084600F0BCB808B525493C
:10025000254B994221D2013B5B1A9D08032B0A468C
:1002600005F101053BD9214E6C08334606EBC40469
:10027000D3F800C05868C2F800C008339C425060F0
:1002800002F10802F4D1EA0707D525F0010506EBD3
:10029000850301EB85021B681360154A154B9A42D2
:1002A00018D2013B991A8C080329134604F1010462
:1002B0000ED9600802EBC0000021196059600833B4
:1002C0008342FAD1E30705D524F0010402EB84024E
:1002D0000023136000F01CF8FFF792FFFEE7034BCA
:1002E000D9E700BF000000200000002094070000B4
:1002F000000000202C01002004214FF0FF320846AE
:1003000000F060B804214FF0FF32084600F05AB800
:1003100010B44FF0E0220849D2F8883D4FF08040F9
:1003200043F47003C2F8883D0124044B04600B6061
:100330005DF8044B704700BF000000200090D00320
:100340004FF47A7300BF00BF00BF00BF00BF00BF03
:1003500000BF00BF00BF00BF00BF00BF00BF00BFA5
:1003600000BF00BF00BF00BF00BF00BF00BF00BF95
:1003700000BF00BF00BF00BF00BF00BF00BF00BF85
:1003800000BF00BF00BF00BF00BF00BF00BF00BF75
:1003900000BF00BF00BF00BF00BF00BF00BF00BF65
:1003A00000BF00BF00BF00BF00BF00BF00BF00BF55
:1003B00000BF00BF00BF00BF00BF00BF013BC1D1F5
:1003C000704700BF154B2DE9F04114460646585CB6
:1003D000134F884600F034F8621C01D0002C17DD62
:1003E000BD5D284600F01EF84FF4FA72FFF7A8FF33
:1003F000013AFBD1284600F023F84FF4FA72FFF7D8
:100400009FFF013AFBD1631CEBD0013C002CE7DCE1
:1004100017F80800BDE8F04100F004B8D806000065
:10042000E00600001F288ABF034A044A203801233F
:1004300083401360704700BF080800500805005053
:100440001F288ABF034A044A2038012383401360CF
:10045000704700BF0C0800500C0500502DE9F0411A
:1004600000240E4DDFF840800D4F26462B684BB11F
:1004700058F8243057F82420013348F8243002B1CA
:1004800090472E600134082C05F10405EED1054A91
:10049000136801331360BDE8F08100BF00610040C4
:1004A00028000020240000200400002008B50021BE
:1004B000042000F0D9F8BDE808400121032000F035
:1004C000D3B800BF10B500EB800404F2DC5000216B
:1004D00000F0E0F8C4F5BB600121BDE81040043035
:1004E00000F0D8B800000000431E022B30B4C0EB6F
:1004F000C001494D53D8494C54F8234045F8314088
:1005000005EBC102464951F823105160454951F8A5
:1005100023109160444951F82310D160434951F8A8
:1005200023101161424951F823105161414951F89A
:1005300023109161404951F82310D1613F4951F88E
:10054000231011623E4951F8231051623D4951F880
:10055000231091623C4951F82310D1623B4A52F872
:1005600023404FEAC00CACEB000105EBC1010C636A
:10057000374951F82010032B2FD8DFE803F00A0287
:100580000E0C3449ACEB000205EBC203596330BCDE
:1005900070473149F6E73149F4E73149F2E79FED19
:1005A000127B05EBC10181ED007B9FED117B81ED9D
:1005B000027B9FED117B81ED047B9FED117B81ED33
:1005C000067B9FED117B81ED087B9FED117B254C18
:1005D00081ED0A7B4FEAC00CC5E701F1804101F5CE
:1005E000E031CFE7AFF3008004C0014008C0014014
:1005F00004C1014010C1014018C1014000C50140C3
:1006000008C501400CC5014010C5014020C501408E
:1006100024C5014028C5014048000020780700009B
:100620006C07000060070000540700004807000046
:100630003C070000300700002407000018070000F6
:100640000C07000000070000F4060000E8060000A8
:1006500084070000682502406415024000C0014084
:100660006CD502402CC5014010B504460846FFF782
:100670003BFF074BC0EBC00003EBC0030520D9696B
:100680000860596B0C605B6901221A6010BD00BFE5
:100690004800002010B40E4B0E4AC1EBC10103EB21
:1006A000C1010424CB691C6041F28834201A1080F7
:1006B00088690460486A02608A6A01231360CA6A12
:1006C000002010604A6813605DF8044B704700BF5B
:1006D00048000020280100201C0B1F251E000000E0
:1006E00015160F18130000002C1502402C2502408F
:1006F0002CD50240281502402825024028D502406A
:10070000241502402425024024D502402015024031
:100710002025024020D5024010150240102502403D
:1007200010D502400C1502400C2502400CD50240A9
:10073000081502400825024008D502400015024075
:100740000025024000D50240181102401821024045
:1007500018D10240101102401021024010D1024075
:10076000041102400421024004D10240081002405A
:100770000820024008D00240041002400420024039
:1007800004D0024060050000640500006805000018
:040790006C050000F4
:040000030000024DAA
:00000001FF
